{
	"contracts/AddFiveStorage.sol": {
		"AddFiveStorage": {
			"abi": [
				{
					"inputs": [
						{
							"internalType": "string",
							"name": "_name",
							"type": "string"
						},
						{
							"internalType": "uint256",
							"name": "_favnumber",
							"type": "uint256"
						}
					],
					"name": "addperson",
					"outputs": [],
					"stateMutability": "nonpayable",
					"type": "function"
				},
				{
					"inputs": [
						{
							"internalType": "uint256",
							"name": "",
							"type": "uint256"
						}
					],
					"name": "listofpeople",
					"outputs": [
						{
							"internalType": "uint256",
							"name": "favnumber",
							"type": "uint256"
						},
						{
							"internalType": "string",
							"name": "name",
							"type": "string"
						}
					],
					"stateMutability": "view",
					"type": "function"
				},
				{
					"inputs": [],
					"name": "myfavnumber",
					"outputs": [
						{
							"internalType": "uint256",
							"name": "",
							"type": "uint256"
						}
					],
					"stateMutability": "view",
					"type": "function"
				},
				{
					"inputs": [
						{
							"internalType": "string",
							"name": "",
							"type": "string"
						}
					],
					"name": "nameToFavNumber",
					"outputs": [
						{
							"internalType": "uint256",
							"name": "",
							"type": "uint256"
						}
					],
					"stateMutability": "view",
					"type": "function"
				},
				{
					"inputs": [],
					"name": "pat",
					"outputs": [
						{
							"internalType": "uint256",
							"name": "favnumber",
							"type": "uint256"
						},
						{
							"internalType": "string",
							"name": "name",
							"type": "string"
						}
					],
					"stateMutability": "view",
					"type": "function"
				},
				{
					"inputs": [],
					"name": "retrieve",
					"outputs": [
						{
							"internalType": "uint256",
							"name": "",
							"type": "uint256"
						}
					],
					"stateMutability": "view",
					"type": "function"
				},
				{
					"inputs": [
						{
							"internalType": "uint256",
							"name": "_number",
							"type": "uint256"
						}
					],
					"name": "store",
					"outputs": [],
					"stateMutability": "nonpayable",
					"type": "function"
				}
			],
			"devdoc": {
				"kind": "dev",
				"methods": {},
				"version": 1
			},
			"evm": {
				"assembly": "    /* \"contracts/AddFiveStorage.sol\":143:308  contract AddFiveStorage is SimpleStorage { //inheritied... */\n  mstore(0x40, 0x80)\n    /* \"contracts/SimpleStorage.sol\":425:459  person({name:\"pat\", favnumber:10}) */\n  mload(0x40)\n  dup1\n  0x40\n  add\n  0x40\n  mstore\n  dup1\n    /* \"contracts/SimpleStorage.sol\":455:457  10 */\n  0x0a\n    /* \"contracts/SimpleStorage.sol\":425:459  person({name:\"pat\", favnumber:10}) */\n  dup2\n  mstore\n  0x20\n  add\n  mload(0x40)\n  dup1\n  0x40\n  add\n  0x40\n  mstore\n  dup1\n  0x03\n  dup2\n  mstore\n  0x20\n  add\n  0x7061740000000000000000000000000000000000000000000000000000000000\n  dup2\n  mstore\n  pop\n  dup2\n  mstore\n  pop\n    /* \"contracts/SimpleStorage.sol\":406:459  person public pat =person({name:\"pat\", favnumber:10}) */\n  0x02\n  0x00\n  dup3\n  add\n  mload\n  dup2\n  0x00\n  add\n  sstore\n  0x20\n  dup3\n  add\n  mload\n  dup2\n  0x01\n  add\n  swap1\n  dup2\n  tag_1\n  swap2\n  swap1\n  tag_2\n  jump\t// in\ntag_1:\n  pop\n  pop\n  pop\n    /* \"contracts/AddFiveStorage.sol\":143:308  contract AddFiveStorage is SimpleStorage { //inheritied... */\n  callvalue\n  dup1\n  iszero\n  tag_3\n  jumpi\n  revert(0x00, 0x00)\ntag_3:\n  pop\n  jump(tag_4)\n    /* \"#utility.yul\":7:106   */\ntag_5:\n    /* \"#utility.yul\":59:65   */\n  0x00\n    /* \"#utility.yul\":93:98   */\n  dup2\n    /* \"#utility.yul\":87:99   */\n  mload\n    /* \"#utility.yul\":77:99   */\n  swap1\n  pop\n    /* \"#utility.yul\":7:106   */\n  swap2\n  swap1\n  pop\n  jump\t// out\n    /* \"#utility.yul\":112:292   */\ntag_6:\n    /* \"#utility.yul\":160:237   */\n  0x4e487b7100000000000000000000000000000000000000000000000000000000\n    /* \"#utility.yul\":157:158   */\n  0x00\n    /* \"#utility.yul\":150:238   */\n  mstore\n    /* \"#utility.yul\":257:261   */\n  0x41\n    /* \"#utility.yul\":254:255   */\n  0x04\n    /* \"#utility.yul\":247:262   */\n  mstore\n    /* \"#utility.yul\":281:285   */\n  0x24\n    /* \"#utility.yul\":278:279   */\n  0x00\n    /* \"#utility.yul\":271:286   */\n  revert\n    /* \"#utility.yul\":298:478   */\ntag_7:\n    /* \"#utility.yul\":346:423   */\n  0x4e487b7100000000000000000000000000000000000000000000000000000000\n    /* \"#utility.yul\":343:344   */\n  0x00\n    /* \"#utility.yul\":336:424   */\n  mstore\n    /* \"#utility.yul\":443:447   */\n  0x22\n    /* \"#utility.yul\":440:441   */\n  0x04\n    /* \"#utility.yul\":433:448   */\n  mstore\n    /* \"#utility.yul\":467:471   */\n  0x24\n    /* \"#utility.yul\":464:465   */\n  0x00\n    /* \"#utility.yul\":457:472   */\n  revert\n    /* \"#utility.yul\":484:804   */\ntag_8:\n    /* \"#utility.yul\":528:534   */\n  0x00\n    /* \"#utility.yul\":565:566   */\n  0x02\n    /* \"#utility.yul\":559:563   */\n  dup3\n    /* \"#utility.yul\":555:567   */\n  div\n    /* \"#utility.yul\":545:567   */\n  swap1\n  pop\n    /* \"#utility.yul\":612:613   */\n  0x01\n    /* \"#utility.yul\":606:610   */\n  dup3\n    /* \"#utility.yul\":602:614   */\n  and\n    /* \"#utility.yul\":633:651   */\n  dup1\n    /* \"#utility.yul\":623:704   */\n  tag_30\n  jumpi\n    /* \"#utility.yul\":689:693   */\n  0x7f\n    /* \"#utility.yul\":681:687   */\n  dup3\n    /* \"#utility.yul\":677:694   */\n  and\n    /* \"#utility.yul\":667:694   */\n  swap2\n  pop\n    /* \"#utility.yul\":623:704   */\ntag_30:\n    /* \"#utility.yul\":751:753   */\n  0x20\n    /* \"#utility.yul\":743:749   */\n  dup3\n    /* \"#utility.yul\":740:754   */\n  lt\n    /* \"#utility.yul\":720:738   */\n  dup2\n    /* \"#utility.yul\":717:755   */\n  sub\n    /* \"#utility.yul\":714:798   */\n  tag_31\n  jumpi\n    /* \"#utility.yul\":770:788   */\n  tag_32\n  tag_7\n  jump\t// in\ntag_32:\n    /* \"#utility.yul\":714:798   */\ntag_31:\n    /* \"#utility.yul\":535:804   */\n  pop\n    /* \"#utility.yul\":484:804   */\n  swap2\n  swap1\n  pop\n  jump\t// out\n    /* \"#utility.yul\":810:951   */\ntag_9:\n    /* \"#utility.yul\":859:863   */\n  0x00\n    /* \"#utility.yul\":882:885   */\n  dup2\n    /* \"#utility.yul\":874:885   */\n  swap1\n  pop\n    /* \"#utility.yul\":905:908   */\n  dup2\n    /* \"#utility.yul\":902:903   */\n  0x00\n    /* \"#utility.yul\":895:909   */\n  mstore\n    /* \"#utility.yul\":939:943   */\n  0x20\n    /* \"#utility.yul\":936:937   */\n  0x00\n    /* \"#utility.yul\":926:944   */\n  keccak256\n    /* \"#utility.yul\":918:944   */\n  swap1\n  pop\n    /* \"#utility.yul\":810:951   */\n  swap2\n  swap1\n  pop\n  jump\t// out\n    /* \"#utility.yul\":957:1050   */\ntag_10:\n    /* \"#utility.yul\":994:1000   */\n  0x00\n    /* \"#utility.yul\":1041:1043   */\n  0x20\n    /* \"#utility.yul\":1036:1038   */\n  0x1f\n    /* \"#utility.yul\":1029:1034   */\n  dup4\n    /* \"#utility.yul\":1025:1039   */\n  add\n    /* \"#utility.yul\":1021:1044   */\n  div\n    /* \"#utility.yul\":1011:1044   */\n  swap1\n  pop\n    /* \"#utility.yul\":957:1050   */\n  swap2\n  swap1\n  pop\n  jump\t// out\n    /* \"#utility.yul\":1056:1163   */\ntag_11:\n    /* \"#utility.yul\":1100:1108   */\n  0x00\n    /* \"#utility.yul\":1150:1155   */\n  dup3\n    /* \"#utility.yul\":1144:1148   */\n  dup3\n    /* \"#utility.yul\":1140:1156   */\n  shl\n    /* \"#utility.yul\":1119:1156   */\n  swap1\n  pop\n    /* \"#utility.yul\":1056:1163   */\n  swap3\n  swap2\n  pop\n  pop\n  jump\t// out\n    /* \"#utility.yul\":1169:1562   */\ntag_12:\n    /* \"#utility.yul\":1238:1244   */\n  0x00\n    /* \"#utility.yul\":1288:1289   */\n  0x08\n    /* \"#utility.yul\":1276:1286   */\n  dup4\n    /* \"#utility.yul\":1272:1290   */\n  mul\n    /* \"#utility.yul\":1311:1408   */\n  tag_37\n    /* \"#utility.yul\":1341:1407   */\n  0xffffffffffffffffffffffffffffffffffffffffffffffffffffffffffffffff\n    /* \"#utility.yul\":1330:1339   */\n  dup3\n    /* \"#utility.yul\":1311:1408   */\n  tag_11\n  jump\t// in\ntag_37:\n    /* \"#utility.yul\":1429:1468   */\n  tag_38\n    /* \"#utility.yul\":1459:1467   */\n  dup7\n    /* \"#utility.yul\":1448:1457   */\n  dup4\n    /* \"#utility.yul\":1429:1468   */\n  tag_11\n  jump\t// in\ntag_38:\n    /* \"#utility.yul\":1417:1468   */\n  swap6\n  pop\n    /* \"#utility.yul\":1501:1505   */\n  dup1\n    /* \"#utility.yul\":1497:1506   */\n  not\n    /* \"#utility.yul\":1490:1495   */\n  dup5\n    /* \"#utility.yul\":1486:1507   */\n  and\n    /* \"#utility.yul\":1477:1507   */\n  swap4\n  pop\n    /* \"#utility.yul\":1550:1554   */\n  dup1\n    /* \"#utility.yul\":1540:1548   */\n  dup7\n    /* \"#utility.yul\":1536:1555   */\n  and\n    /* \"#utility.yul\":1529:1534   */\n  dup5\n    /* \"#utility.yul\":1526:1556   */\n  or\n    /* \"#utility.yul\":1516:1556   */\n  swap3\n  pop\n    /* \"#utility.yul\":1245:1562   */\n  pop\n  pop\n    /* \"#utility.yul\":1169:1562   */\n  swap4\n  swap3\n  pop\n  pop\n  pop\n  jump\t// out\n    /* \"#utility.yul\":1568:1645   */\ntag_13:\n    /* \"#utility.yul\":1605:1612   */\n  0x00\n    /* \"#utility.yul\":1634:1639   */\n  dup2\n    /* \"#utility.yul\":1623:1639   */\n  swap1\n  pop\n    /* \"#utility.yul\":1568:1645   */\n  swap2\n  swap1\n  pop\n  jump\t// out\n    /* \"#utility.yul\":1651:1711   */\ntag_14:\n    /* \"#utility.yul\":1679:1682   */\n  0x00\n    /* \"#utility.yul\":1700:1705   */\n  dup2\n    /* \"#utility.yul\":1693:1705   */\n  swap1\n  pop\n    /* \"#utility.yul\":1651:1711   */\n  swap2\n  swap1\n  pop\n  jump\t// out\n    /* \"#utility.yul\":1717:1859   */\ntag_15:\n    /* \"#utility.yul\":1767:1776   */\n  0x00\n    /* \"#utility.yul\":1800:1853   */\n  tag_42\n    /* \"#utility.yul\":1818:1852   */\n  tag_43\n    /* \"#utility.yul\":1827:1851   */\n  tag_44\n    /* \"#utility.yul\":1845:1850   */\n  dup5\n    /* \"#utility.yul\":1827:1851   */\n  tag_13\n  jump\t// in\ntag_44:\n    /* \"#utility.yul\":1818:1852   */\n  tag_14\n  jump\t// in\ntag_43:\n    /* \"#utility.yul\":1800:1853   */\n  tag_13\n  jump\t// in\ntag_42:\n    /* \"#utility.yul\":1787:1853   */\n  swap1\n  pop\n    /* \"#utility.yul\":1717:1859   */\n  swap2\n  swap1\n  pop\n  jump\t// out\n    /* \"#utility.yul\":1865:1940   */\ntag_16:\n    /* \"#utility.yul\":1908:1911   */\n  0x00\n    /* \"#utility.yul\":1929:1934   */\n  dup2\n    /* \"#utility.yul\":1922:1934   */\n  swap1\n  pop\n    /* \"#utility.yul\":1865:1940   */\n  swap2\n  swap1\n  pop\n  jump\t// out\n    /* \"#utility.yul\":1946:2215   */\ntag_17:\n    /* \"#utility.yul\":2056:2095   */\n  tag_47\n    /* \"#utility.yul\":2087:2094   */\n  dup4\n    /* \"#utility.yul\":2056:2095   */\n  tag_15\n  jump\t// in\ntag_47:\n    /* \"#utility.yul\":2117:2208   */\n  tag_48\n    /* \"#utility.yul\":2166:2207   */\n  tag_49\n    /* \"#utility.yul\":2190:2206   */\n  dup3\n    /* \"#utility.yul\":2166:2207   */\n  tag_16\n  jump\t// in\ntag_49:\n    /* \"#utility.yul\":2158:2164   */\n  dup5\n    /* \"#utility.yul\":2151:2155   */\n  dup5\n    /* \"#utility.yul\":2145:2156   */\n  sload\n    /* \"#utility.yul\":2117:2208   */\n  tag_12\n  jump\t// in\ntag_48:\n    /* \"#utility.yul\":2111:2115   */\n  dup3\n    /* \"#utility.yul\":2104:2209   */\n  sstore\n    /* \"#utility.yul\":2022:2215   */\n  pop\n    /* \"#utility.yul\":1946:2215   */\n  pop\n  pop\n  pop\n  jump\t// out\n    /* \"#utility.yul\":2221:2294   */\ntag_18:\n    /* \"#utility.yul\":2266:2269   */\n  0x00\n    /* \"#utility.yul\":2287:2288   */\n  0x00\n    /* \"#utility.yul\":2280:2288   */\n  swap1\n  pop\n    /* \"#utility.yul\":2221:2294   */\n  swap1\n  jump\t// out\n    /* \"#utility.yul\":2300:2489   */\ntag_19:\n    /* \"#utility.yul\":2377:2409   */\n  tag_52\n  tag_18\n  jump\t// in\ntag_52:\n    /* \"#utility.yul\":2418:2483   */\n  tag_53\n    /* \"#utility.yul\":2476:2482   */\n  dup2\n    /* \"#utility.yul\":2468:2474   */\n  dup5\n    /* \"#utility.yul\":2462:2466   */\n  dup5\n    /* \"#utility.yul\":2418:2483   */\n  tag_17\n  jump\t// in\ntag_53:\n    /* \"#utility.yul\":2353:2489   */\n  pop\n    /* \"#utility.yul\":2300:2489   */\n  pop\n  pop\n  jump\t// out\n    /* \"#utility.yul\":2495:2681   */\ntag_20:\n    /* \"#utility.yul\":2555:2675   */\ntag_55:\n    /* \"#utility.yul\":2572:2575   */\n  dup2\n    /* \"#utility.yul\":2565:2570   */\n  dup2\n    /* \"#utility.yul\":2562:2576   */\n  lt\n    /* \"#utility.yul\":2555:2675   */\n  iszero\n  tag_57\n  jumpi\n    /* \"#utility.yul\":2626:2665   */\n  tag_58\n    /* \"#utility.yul\":2663:2664   */\n  0x00\n    /* \"#utility.yul\":2656:2661   */\n  dup3\n    /* \"#utility.yul\":2626:2665   */\n  tag_19\n  jump\t// in\ntag_58:\n    /* \"#utility.yul\":2599:2600   */\n  0x01\n    /* \"#utility.yul\":2592:2597   */\n  dup2\n    /* \"#utility.yul\":2588:2601   */\n  add\n    /* \"#utility.yul\":2579:2601   */\n  swap1\n  pop\n    /* \"#utility.yul\":2555:2675   */\n  jump(tag_55)\ntag_57:\n    /* \"#utility.yul\":2495:2681   */\n  pop\n  pop\n  jump\t// out\n    /* \"#utility.yul\":2687:3230   */\ntag_21:\n    /* \"#utility.yul\":2788:2790   */\n  0x1f\n    /* \"#utility.yul\":2783:2786   */\n  dup3\n    /* \"#utility.yul\":2780:2791   */\n  gt\n    /* \"#utility.yul\":2777:3223   */\n  iszero\n  tag_60\n  jumpi\n    /* \"#utility.yul\":2822:2860   */\n  tag_61\n    /* \"#utility.yul\":2854:2859   */\n  dup2\n    /* \"#utility.yul\":2822:2860   */\n  tag_9\n  jump\t// in\ntag_61:\n    /* \"#utility.yul\":2906:2935   */\n  tag_62\n    /* \"#utility.yul\":2924:2934   */\n  dup5\n    /* \"#utility.yul\":2906:2935   */\n  tag_10\n  jump\t// in\ntag_62:\n    /* \"#utility.yul\":2896:2904   */\n  dup2\n    /* \"#utility.yul\":2892:2936   */\n  add\n    /* \"#utility.yul\":3089:3091   */\n  0x20\n    /* \"#utility.yul\":3077:3087   */\n  dup6\n    /* \"#utility.yul\":3074:3092   */\n  lt\n    /* \"#utility.yul\":3071:3120   */\n  iszero\n  tag_63\n  jumpi\n    /* \"#utility.yul\":3110:3118   */\n  dup2\n    /* \"#utility.yul\":3095:3118   */\n  swap1\n  pop\n    /* \"#utility.yul\":3071:3120   */\ntag_63:\n    /* \"#utility.yul\":3133:3213   */\n  tag_64\n    /* \"#utility.yul\":3189:3211   */\n  tag_65\n    /* \"#utility.yul\":3207:3210   */\n  dup6\n    /* \"#utility.yul\":3189:3211   */\n  tag_10\n  jump\t// in\ntag_65:\n    /* \"#utility.yul\":3179:3187   */\n  dup4\n    /* \"#utility.yul\":3175:3212   */\n  add\n    /* \"#utility.yul\":3162:3173   */\n  dup3\n    /* \"#utility.yul\":3133:3213   */\n  tag_20\n  jump\t// in\ntag_64:\n    /* \"#utility.yul\":2792:3223   */\n  pop\n  pop\n    /* \"#utility.yul\":2777:3223   */\ntag_60:\n    /* \"#utility.yul\":2687:3230   */\n  pop\n  pop\n  pop\n  jump\t// out\n    /* \"#utility.yul\":3236:3353   */\ntag_22:\n    /* \"#utility.yul\":3290:3298   */\n  0x00\n    /* \"#utility.yul\":3340:3345   */\n  dup3\n    /* \"#utility.yul\":3334:3338   */\n  dup3\n    /* \"#utility.yul\":3330:3346   */\n  shr\n    /* \"#utility.yul\":3309:3346   */\n  swap1\n  pop\n    /* \"#utility.yul\":3236:3353   */\n  swap3\n  swap2\n  pop\n  pop\n  jump\t// out\n    /* \"#utility.yul\":3359:3528   */\ntag_23:\n    /* \"#utility.yul\":3403:3409   */\n  0x00\n    /* \"#utility.yul\":3436:3487   */\n  tag_68\n    /* \"#utility.yul\":3484:3485   */\n  0x00\n    /* \"#utility.yul\":3480:3486   */\n  not\n    /* \"#utility.yul\":3472:3477   */\n  dup5\n    /* \"#utility.yul\":3469:3470   */\n  0x08\n    /* \"#utility.yul\":3465:3478   */\n  mul\n    /* \"#utility.yul\":3436:3487   */\n  tag_22\n  jump\t// in\ntag_68:\n    /* \"#utility.yul\":3432:3488   */\n  not\n    /* \"#utility.yul\":3517:3521   */\n  dup1\n    /* \"#utility.yul\":3511:3515   */\n  dup4\n    /* \"#utility.yul\":3507:3522   */\n  and\n    /* \"#utility.yul\":3497:3522   */\n  swap2\n  pop\n    /* \"#utility.yul\":3410:3528   */\n  pop\n    /* \"#utility.yul\":3359:3528   */\n  swap3\n  swap2\n  pop\n  pop\n  jump\t// out\n    /* \"#utility.yul\":3533:3828   */\ntag_24:\n    /* \"#utility.yul\":3609:3613   */\n  0x00\n    /* \"#utility.yul\":3755:3784   */\n  tag_70\n    /* \"#utility.yul\":3780:3783   */\n  dup4\n    /* \"#utility.yul\":3774:3778   */\n  dup4\n    /* \"#utility.yul\":3755:3784   */\n  tag_23\n  jump\t// in\ntag_70:\n    /* \"#utility.yul\":3747:3784   */\n  swap2\n  pop\n    /* \"#utility.yul\":3817:3820   */\n  dup3\n    /* \"#utility.yul\":3814:3815   */\n  0x02\n    /* \"#utility.yul\":3810:3821   */\n  mul\n    /* \"#utility.yul\":3804:3808   */\n  dup3\n    /* \"#utility.yul\":3801:3822   */\n  or\n    /* \"#utility.yul\":3793:3822   */\n  swap1\n  pop\n    /* \"#utility.yul\":3533:3828   */\n  swap3\n  swap2\n  pop\n  pop\n  jump\t// out\n    /* \"#utility.yul\":3833:5228   */\ntag_2:\n    /* \"#utility.yul\":3950:3987   */\n  tag_72\n    /* \"#utility.yul\":3983:3986   */\n  dup3\n    /* \"#utility.yul\":3950:3987   */\n  tag_5\n  jump\t// in\ntag_72:\n    /* \"#utility.yul\":4052:4070   */\n  0xffffffffffffffff\n    /* \"#utility.yul\":4044:4050   */\n  dup2\n    /* \"#utility.yul\":4041:4071   */\n  gt\n    /* \"#utility.yul\":4038:4094   */\n  iszero\n  tag_73\n  jumpi\n    /* \"#utility.yul\":4074:4092   */\n  tag_74\n  tag_6\n  jump\t// in\ntag_74:\n    /* \"#utility.yul\":4038:4094   */\ntag_73:\n    /* \"#utility.yul\":4118:4156   */\n  tag_75\n    /* \"#utility.yul\":4150:4154   */\n  dup3\n    /* \"#utility.yul\":4144:4155   */\n  sload\n    /* \"#utility.yul\":4118:4156   */\n  tag_8\n  jump\t// in\ntag_75:\n    /* \"#utility.yul\":4203:4270   */\n  tag_76\n    /* \"#utility.yul\":4263:4269   */\n  dup3\n    /* \"#utility.yul\":4255:4261   */\n  dup3\n    /* \"#utility.yul\":4249:4253   */\n  dup6\n    /* \"#utility.yul\":4203:4270   */\n  tag_21\n  jump\t// in\ntag_76:\n    /* \"#utility.yul\":4297:4298   */\n  0x00\n    /* \"#utility.yul\":4321:4325   */\n  0x20\n    /* \"#utility.yul\":4308:4325   */\n  swap1\n  pop\n    /* \"#utility.yul\":4353:4355   */\n  0x1f\n    /* \"#utility.yul\":4345:4351   */\n  dup4\n    /* \"#utility.yul\":4342:4356   */\n  gt\n    /* \"#utility.yul\":4370:4371   */\n  0x01\n    /* \"#utility.yul\":4365:4983   */\n  dup2\n  eq\n  tag_78\n  jumpi\n    /* \"#utility.yul\":5027:5028   */\n  0x00\n    /* \"#utility.yul\":5044:5050   */\n  dup5\n    /* \"#utility.yul\":5041:5118   */\n  iszero\n  tag_79\n  jumpi\n    /* \"#utility.yul\":5093:5102   */\n  dup3\n    /* \"#utility.yul\":5088:5091   */\n  dup8\n    /* \"#utility.yul\":5084:5103   */\n  add\n    /* \"#utility.yul\":5078:5104   */\n  mload\n    /* \"#utility.yul\":5069:5104   */\n  swap1\n  pop\n    /* \"#utility.yul\":5041:5118   */\ntag_79:\n    /* \"#utility.yul\":5144:5211   */\n  tag_80\n    /* \"#utility.yul\":5204:5210   */\n  dup6\n    /* \"#utility.yul\":5197:5202   */\n  dup3\n    /* \"#utility.yul\":5144:5211   */\n  tag_24\n  jump\t// in\ntag_80:\n    /* \"#utility.yul\":5138:5142   */\n  dup7\n    /* \"#utility.yul\":5131:5212   */\n  sstore\n    /* \"#utility.yul\":5000:5222   */\n  pop\n    /* \"#utility.yul\":4335:5222   */\n  jump(tag_77)\n    /* \"#utility.yul\":4365:4983   */\ntag_78:\n    /* \"#utility.yul\":4417:4421   */\n  0x1f\n    /* \"#utility.yul\":4413:4422   */\n  not\n    /* \"#utility.yul\":4405:4411   */\n  dup5\n    /* \"#utility.yul\":4401:4423   */\n  and\n    /* \"#utility.yul\":4451:4488   */\n  tag_81\n    /* \"#utility.yul\":4483:4487   */\n  dup7\n    /* \"#utility.yul\":4451:4488   */\n  tag_9\n  jump\t// in\ntag_81:\n    /* \"#utility.yul\":4510:4511   */\n  0x00\n    /* \"#utility.yul\":4524:4732   */\ntag_82:\n    /* \"#utility.yul\":4538:4545   */\n  dup3\n    /* \"#utility.yul\":4535:4536   */\n  dup2\n    /* \"#utility.yul\":4532:4546   */\n  lt\n    /* \"#utility.yul\":4524:4732   */\n  iszero\n  tag_84\n  jumpi\n    /* \"#utility.yul\":4617:4626   */\n  dup5\n    /* \"#utility.yul\":4612:4615   */\n  dup10\n    /* \"#utility.yul\":4608:4627   */\n  add\n    /* \"#utility.yul\":4602:4628   */\n  mload\n    /* \"#utility.yul\":4594:4600   */\n  dup3\n    /* \"#utility.yul\":4587:4629   */\n  sstore\n    /* \"#utility.yul\":4668:4669   */\n  0x01\n    /* \"#utility.yul\":4660:4666   */\n  dup3\n    /* \"#utility.yul\":4656:4670   */\n  add\n    /* \"#utility.yul\":4646:4670   */\n  swap2\n  pop\n    /* \"#utility.yul\":4715:4717   */\n  0x20\n    /* \"#utility.yul\":4704:4713   */\n  dup6\n    /* \"#utility.yul\":4700:4718   */\n  add\n    /* \"#utility.yul\":4687:4718   */\n  swap5\n  pop\n    /* \"#utility.yul\":4561:4565   */\n  0x20\n    /* \"#utility.yul\":4558:4559   */\n  dup2\n    /* \"#utility.yul\":4554:4566   */\n  add\n    /* \"#utility.yul\":4549:4566   */\n  swap1\n  pop\n    /* \"#utility.yul\":4524:4732   */\n  jump(tag_82)\ntag_84:\n    /* \"#utility.yul\":4760:4766   */\n  dup7\n    /* \"#utility.yul\":4751:4758   */\n  dup4\n    /* \"#utility.yul\":4748:4767   */\n  lt\n    /* \"#utility.yul\":4745:4924   */\n  iszero\n  tag_85\n  jumpi\n    /* \"#utility.yul\":4818:4827   */\n  dup5\n    /* \"#utility.yul\":4813:4816   */\n  dup10\n    /* \"#utility.yul\":4809:4828   */\n  add\n    /* \"#utility.yul\":4803:4829   */\n  mload\n    /* \"#utility.yul\":4861:4909   */\n  tag_86\n    /* \"#utility.yul\":4903:4907   */\n  0x1f\n    /* \"#utility.yul\":4895:4901   */\n  dup10\n    /* \"#utility.yul\":4891:4908   */\n  and\n    /* \"#utility.yul\":4880:4889   */\n  dup3\n    /* \"#utility.yul\":4861:4909   */\n  tag_23\n  jump\t// in\ntag_86:\n    /* \"#utility.yul\":4853:4859   */\n  dup4\n    /* \"#utility.yul\":4846:4910   */\n  sstore\n    /* \"#utility.yul\":4768:4924   */\n  pop\n    /* \"#utility.yul\":4745:4924   */\ntag_85:\n    /* \"#utility.yul\":4970:4971   */\n  0x01\n    /* \"#utility.yul\":4966:4967   */\n  0x02\n    /* \"#utility.yul\":4958:4964   */\n  dup9\n    /* \"#utility.yul\":4954:4968   */\n  mul\n    /* \"#utility.yul\":4950:4972   */\n  add\n    /* \"#utility.yul\":4944:4948   */\n  dup9\n    /* \"#utility.yul\":4937:4973   */\n  sstore\n    /* \"#utility.yul\":4372:4983   */\n  pop\n  pop\n  pop\n    /* \"#utility.yul\":4335:5222   */\ntag_77:\n  pop\n    /* \"#utility.yul\":3925:5228   */\n  pop\n  pop\n  pop\n    /* \"#utility.yul\":3833:5228   */\n  pop\n  pop\n  jump\t// out\n    /* \"contracts/AddFiveStorage.sol\":143:308  contract AddFiveStorage is SimpleStorage { //inheritied... */\ntag_4:\n  dataSize(sub_0)\n  dup1\n  dataOffset(sub_0)\n  0x00\n  codecopy\n  0x00\n  return\nstop\n\nsub_0: assembly {\n        /* \"contracts/AddFiveStorage.sol\":143:308  contract AddFiveStorage is SimpleStorage { //inheritied... */\n      mstore(0x40, 0x80)\n      callvalue\n      dup1\n      iszero\n      tag_1\n      jumpi\n      revert(0x00, 0x00)\n    tag_1:\n      pop\n      jumpi(tag_2, lt(calldatasize, 0x04))\n      shr(0xe0, calldataload(0x00))\n      dup1\n      0xb4a24f50\n      gt\n      tag_10\n      jumpi\n      dup1\n      0xb4a24f50\n      eq\n      tag_6\n      jumpi\n      dup1\n      0xbf119bdb\n      eq\n      tag_7\n      jumpi\n      dup1\n      0xe1b3202a\n      eq\n      tag_8\n      jumpi\n      dup1\n      0xee461d15\n      eq\n      tag_9\n      jumpi\n      jump(tag_2)\n    tag_10:\n      dup1\n      0x2e64cec1\n      eq\n      tag_3\n      jumpi\n      dup1\n      0x43ec8f47\n      eq\n      tag_4\n      jumpi\n      dup1\n      0x6057361d\n      eq\n      tag_5\n      jumpi\n    tag_2:\n      revert(0x00, 0x00)\n        /* \"contracts/SimpleStorage.sol\":969:1057  function retrieve() public view returns (uint256){... */\n    tag_3:\n      tag_11\n      tag_12\n      jump\t// in\n    tag_11:\n      mload(0x40)\n      tag_13\n      swap2\n      swap1\n      tag_14\n      jump\t// in\n    tag_13:\n      mload(0x40)\n      dup1\n      swap2\n      sub\n      swap1\n      return\n        /* \"contracts/SimpleStorage.sol\":611:661  mapping (string => uint256) public nameToFavNumber */\n    tag_4:\n      tag_15\n      0x04\n      dup1\n      calldatasize\n      sub\n      dup2\n      add\n      swap1\n      tag_16\n      swap2\n      swap1\n      tag_17\n      jump\t// in\n    tag_16:\n      tag_18\n      jump\t// in\n    tag_15:\n      mload(0x40)\n      tag_19\n      swap2\n      swap1\n      tag_14\n      jump\t// in\n    tag_19:\n      mload(0x40)\n      dup1\n      swap2\n      sub\n      swap1\n      return\n        /* \"contracts/AddFiveStorage.sol\":214:305  function store (uint256 _number) public override     {... */\n    tag_5:\n      tag_20\n      0x04\n      dup1\n      calldatasize\n      sub\n      dup2\n      add\n      swap1\n      tag_21\n      swap2\n      swap1\n      tag_22\n      jump\t// in\n    tag_21:\n      tag_23\n      jump\t// in\n    tag_20:\n      stop\n        /* \"contracts/SimpleStorage.sol\":406:459  person public pat =person({name:\"pat\", favnumber:10}) */\n    tag_6:\n      tag_24\n      tag_25\n      jump\t// in\n    tag_24:\n      mload(0x40)\n      tag_26\n      swap3\n      swap2\n      swap1\n      tag_27\n      jump\t// in\n    tag_26:\n      mload(0x40)\n      dup1\n      swap2\n      sub\n      swap1\n      return\n        /* \"contracts/SimpleStorage.sol\":508:536  person[] public listofpeople */\n    tag_7:\n      tag_28\n      0x04\n      dup1\n      calldatasize\n      sub\n      dup2\n      add\n      swap1\n      tag_29\n      swap2\n      swap1\n      tag_22\n      jump\t// in\n    tag_29:\n      tag_30\n      jump\t// in\n    tag_28:\n      mload(0x40)\n      tag_31\n      swap3\n      swap2\n      swap1\n      tag_27\n      jump\t// in\n    tag_31:\n      mload(0x40)\n      dup1\n      swap2\n      sub\n      swap1\n      return\n        /* \"contracts/SimpleStorage.sol\":1065:1483  function addperson(string memory _name , uint256 _favnumber ) public{... */\n    tag_8:\n      tag_32\n      0x04\n      dup1\n      calldatasize\n      sub\n      dup2\n      add\n      swap1\n      tag_33\n      swap2\n      swap1\n      tag_34\n      jump\t// in\n    tag_33:\n      tag_35\n      jump\t// in\n    tag_32:\n      stop\n        /* \"contracts/SimpleStorage.sol\":250:276  uint256 public myfavnumber */\n    tag_9:\n      tag_36\n      tag_37\n      jump\t// in\n    tag_36:\n      mload(0x40)\n      tag_38\n      swap2\n      swap1\n      tag_14\n      jump\t// in\n    tag_38:\n      mload(0x40)\n      dup1\n      swap2\n      sub\n      swap1\n      return\n        /* \"contracts/SimpleStorage.sol\":969:1057  function retrieve() public view returns (uint256){... */\n    tag_12:\n        /* \"contracts/SimpleStorage.sol\":1010:1017  uint256 */\n      0x00\n        /* \"contracts/SimpleStorage.sol\":1036:1047  myfavnumber */\n      sload(0x00)\n        /* \"contracts/SimpleStorage.sol\":1029:1047  return myfavnumber */\n      swap1\n      pop\n        /* \"contracts/SimpleStorage.sol\":969:1057  function retrieve() public view returns (uint256){... */\n      swap1\n      jump\t// out\n        /* \"contracts/SimpleStorage.sol\":611:661  mapping (string => uint256) public nameToFavNumber */\n    tag_18:\n      0x05\n      dup2\n      dup1\n      mload\n      0x20\n      dup2\n      add\n      dup3\n      add\n      dup1\n      mload\n      dup5\n      dup3\n      mstore\n      0x20\n      dup4\n      add\n      0x20\n      dup6\n      add\n      keccak256\n      dup2\n      dup4\n      mstore\n      dup1\n      swap6\n      pop\n      pop\n      pop\n      pop\n      pop\n      pop\n      0x00\n      swap2\n      pop\n      swap1\n      pop\n      sload\n      dup2\n      jump\t// out\n        /* \"contracts/AddFiveStorage.sol\":214:305  function store (uint256 _number) public override     {... */\n    tag_23:\n        /* \"contracts/AddFiveStorage.sol\":297:298  5 */\n      0x05\n        /* \"contracts/AddFiveStorage.sol\":287:294  _number */\n      dup2\n        /* \"contracts/AddFiveStorage.sol\":287:298  _number + 5 */\n      tag_41\n      swap2\n      swap1\n      tag_42\n      jump\t// in\n    tag_41:\n        /* \"contracts/AddFiveStorage.sol\":274:285  myfavnumber */\n      0x00\n        /* \"contracts/AddFiveStorage.sol\":274:298  myfavnumber= _number + 5 */\n      dup2\n      swap1\n      sstore\n      pop\n        /* \"contracts/AddFiveStorage.sol\":214:305  function store (uint256 _number) public override     {... */\n      pop\n      jump\t// out\n        /* \"contracts/SimpleStorage.sol\":406:459  person public pat =person({name:\"pat\", favnumber:10}) */\n    tag_25:\n      0x02\n      dup1\n      0x00\n      add\n      sload\n      swap1\n      dup1\n      0x01\n      add\n      dup1\n      sload\n      tag_43\n      swap1\n      tag_44\n      jump\t// in\n    tag_43:\n      dup1\n      0x1f\n      add\n      0x20\n      dup1\n      swap2\n      div\n      mul\n      0x20\n      add\n      mload(0x40)\n      swap1\n      dup2\n      add\n      0x40\n      mstore\n      dup1\n      swap3\n      swap2\n      swap1\n      dup2\n      dup2\n      mstore\n      0x20\n      add\n      dup3\n      dup1\n      sload\n      tag_45\n      swap1\n      tag_44\n      jump\t// in\n    tag_45:\n      dup1\n      iszero\n      tag_46\n      jumpi\n      dup1\n      0x1f\n      lt\n      tag_47\n      jumpi\n      0x0100\n      dup1\n      dup4\n      sload\n      div\n      mul\n      dup4\n      mstore\n      swap2\n      0x20\n      add\n      swap2\n      jump(tag_46)\n    tag_47:\n      dup3\n      add\n      swap2\n      swap1\n      0x00\n      mstore\n      keccak256(0x00, 0x20)\n      swap1\n    tag_48:\n      dup2\n      sload\n      dup2\n      mstore\n      swap1\n      0x01\n      add\n      swap1\n      0x20\n      add\n      dup1\n      dup4\n      gt\n      tag_48\n      jumpi\n      dup3\n      swap1\n      sub\n      0x1f\n      and\n      dup3\n      add\n      swap2\n    tag_46:\n      pop\n      pop\n      pop\n      pop\n      pop\n      swap1\n      pop\n      dup3\n      jump\t// out\n        /* \"contracts/SimpleStorage.sol\":508:536  person[] public listofpeople */\n    tag_30:\n      0x04\n      dup2\n      dup2\n      sload\n      dup2\n      lt\n      tag_49\n      jumpi\n      0x00\n      dup1\n      revert\n    tag_49:\n      swap1\n      0x00\n      mstore\n      keccak256(0x00, 0x20)\n      swap1\n      0x02\n      mul\n      add\n      0x00\n      swap2\n      pop\n      swap1\n      pop\n      dup1\n      0x00\n      add\n      sload\n      swap1\n      dup1\n      0x01\n      add\n      dup1\n      sload\n      tag_51\n      swap1\n      tag_44\n      jump\t// in\n    tag_51:\n      dup1\n      0x1f\n      add\n      0x20\n      dup1\n      swap2\n      div\n      mul\n      0x20\n      add\n      mload(0x40)\n      swap1\n      dup2\n      add\n      0x40\n      mstore\n      dup1\n      swap3\n      swap2\n      swap1\n      dup2\n      dup2\n      mstore\n      0x20\n      add\n      dup3\n      dup1\n      sload\n      tag_52\n      swap1\n      tag_44\n      jump\t// in\n    tag_52:\n      dup1\n      iszero\n      tag_53\n      jumpi\n      dup1\n      0x1f\n      lt\n      tag_54\n      jumpi\n      0x0100\n      dup1\n      dup4\n      sload\n      div\n      mul\n      dup4\n      mstore\n      swap2\n      0x20\n      add\n      swap2\n      jump(tag_53)\n    tag_54:\n      dup3\n      add\n      swap2\n      swap1\n      0x00\n      mstore\n      keccak256(0x00, 0x20)\n      swap1\n    tag_55:\n      dup2\n      sload\n      dup2\n      mstore\n      swap1\n      0x01\n      add\n      swap1\n      0x20\n      add\n      dup1\n      dup4\n      gt\n      tag_55\n      jumpi\n      dup3\n      swap1\n      sub\n      0x1f\n      and\n      dup3\n      add\n      swap2\n    tag_53:\n      pop\n      pop\n      pop\n      pop\n      pop\n      swap1\n      pop\n      dup3\n      jump\t// out\n        /* \"contracts/SimpleStorage.sol\":1065:1483  function addperson(string memory _name , uint256 _favnumber ) public{... */\n    tag_35:\n        /* \"contracts/SimpleStorage.sol\":1385:1397  listofpeople */\n      0x04\n        /* \"contracts/SimpleStorage.sol\":1403:1427  person(_favnumber,_name) */\n      mload(0x40)\n      dup1\n      0x40\n      add\n      0x40\n      mstore\n      dup1\n        /* \"contracts/SimpleStorage.sol\":1410:1420  _favnumber */\n      dup4\n        /* \"contracts/SimpleStorage.sol\":1403:1427  person(_favnumber,_name) */\n      dup2\n      mstore\n      0x20\n      add\n        /* \"contracts/SimpleStorage.sol\":1421:1426  _name */\n      dup5\n        /* \"contracts/SimpleStorage.sol\":1403:1427  person(_favnumber,_name) */\n      dup2\n      mstore\n      pop\n        /* \"contracts/SimpleStorage.sol\":1385:1428  listofpeople.push(person(_favnumber,_name)) */\n      swap1\n      dup1\n      0x01\n      dup2\n      sload\n      add\n      dup1\n      dup3\n      sstore\n      dup1\n      swap2\n      pop\n      pop\n      0x01\n      swap1\n      sub\n      swap1\n      0x00\n      mstore\n      keccak256(0x00, 0x20)\n      swap1\n      0x02\n      mul\n      add\n      0x00\n      swap1\n      swap2\n      swap1\n      swap2\n      swap1\n      swap2\n      pop\n      0x00\n      dup3\n      add\n      mload\n      dup2\n      0x00\n      add\n      sstore\n      0x20\n      dup3\n      add\n      mload\n      dup2\n      0x01\n      add\n      swap1\n      dup2\n      tag_58\n      swap2\n      swap1\n      tag_59\n      jump\t// in\n    tag_58:\n      pop\n      pop\n      pop\n        /* \"contracts/SimpleStorage.sol\":1463:1473  _favnumber */\n      dup1\n        /* \"contracts/SimpleStorage.sol\":1440:1455  nameToFavNumber */\n      0x05\n        /* \"contracts/SimpleStorage.sol\":1456:1461  _name */\n      dup4\n        /* \"contracts/SimpleStorage.sol\":1440:1462  nameToFavNumber[_name] */\n      mload(0x40)\n      tag_60\n      swap2\n      swap1\n      tag_61\n      jump\t// in\n    tag_60:\n      swap1\n      dup2\n      mstore\n      0x20\n      add\n      mload(0x40)\n      dup1\n      swap2\n      sub\n      swap1\n      keccak256\n        /* \"contracts/SimpleStorage.sol\":1440:1473  nameToFavNumber[_name]=_favnumber */\n      dup2\n      swap1\n      sstore\n      pop\n        /* \"contracts/SimpleStorage.sol\":1065:1483  function addperson(string memory _name , uint256 _favnumber ) public{... */\n      pop\n      pop\n      jump\t// out\n        /* \"contracts/SimpleStorage.sol\":250:276  uint256 public myfavnumber */\n    tag_37:\n      sload(0x00)\n      dup2\n      jump\t// out\n        /* \"#utility.yul\":7:84   */\n    tag_62:\n        /* \"#utility.yul\":44:51   */\n      0x00\n        /* \"#utility.yul\":73:78   */\n      dup2\n        /* \"#utility.yul\":62:78   */\n      swap1\n      pop\n        /* \"#utility.yul\":7:84   */\n      swap2\n      swap1\n      pop\n      jump\t// out\n        /* \"#utility.yul\":90:208   */\n    tag_63:\n        /* \"#utility.yul\":177:201   */\n      tag_105\n        /* \"#utility.yul\":195:200   */\n      dup2\n        /* \"#utility.yul\":177:201   */\n      tag_62\n      jump\t// in\n    tag_105:\n        /* \"#utility.yul\":172:175   */\n      dup3\n        /* \"#utility.yul\":165:202   */\n      mstore\n        /* \"#utility.yul\":90:208   */\n      pop\n      pop\n      jump\t// out\n        /* \"#utility.yul\":214:436   */\n    tag_14:\n        /* \"#utility.yul\":307:311   */\n      0x00\n        /* \"#utility.yul\":345:347   */\n      0x20\n        /* \"#utility.yul\":334:343   */\n      dup3\n        /* \"#utility.yul\":330:348   */\n      add\n        /* \"#utility.yul\":322:348   */\n      swap1\n      pop\n        /* \"#utility.yul\":358:429   */\n      tag_107\n        /* \"#utility.yul\":426:427   */\n      0x00\n        /* \"#utility.yul\":415:424   */\n      dup4\n        /* \"#utility.yul\":411:428   */\n      add\n        /* \"#utility.yul\":402:408   */\n      dup5\n        /* \"#utility.yul\":358:429   */\n      tag_63\n      jump\t// in\n    tag_107:\n        /* \"#utility.yul\":214:436   */\n      swap3\n      swap2\n      pop\n      pop\n      jump\t// out\n        /* \"#utility.yul\":442:517   */\n    tag_64:\n        /* \"#utility.yul\":475:481   */\n      0x00\n        /* \"#utility.yul\":508:510   */\n      0x40\n        /* \"#utility.yul\":502:511   */\n      mload\n        /* \"#utility.yul\":492:511   */\n      swap1\n      pop\n        /* \"#utility.yul\":442:517   */\n      swap1\n      jump\t// out\n        /* \"#utility.yul\":523:640   */\n    tag_65:\n        /* \"#utility.yul\":632:633   */\n      0x00\n        /* \"#utility.yul\":629:630   */\n      0x00\n        /* \"#utility.yul\":622:634   */\n      revert\n        /* \"#utility.yul\":646:763   */\n    tag_66:\n        /* \"#utility.yul\":755:756   */\n      0x00\n        /* \"#utility.yul\":752:753   */\n      0x00\n        /* \"#utility.yul\":745:757   */\n      revert\n        /* \"#utility.yul\":769:886   */\n    tag_67:\n        /* \"#utility.yul\":878:879   */\n      0x00\n        /* \"#utility.yul\":875:876   */\n      0x00\n        /* \"#utility.yul\":868:880   */\n      revert\n        /* \"#utility.yul\":892:1009   */\n    tag_68:\n        /* \"#utility.yul\":1001:1002   */\n      0x00\n        /* \"#utility.yul\":998:999   */\n      0x00\n        /* \"#utility.yul\":991:1003   */\n      revert\n        /* \"#utility.yul\":1015:1117   */\n    tag_69:\n        /* \"#utility.yul\":1056:1062   */\n      0x00\n        /* \"#utility.yul\":1107:1109   */\n      0x1f\n        /* \"#utility.yul\":1103:1110   */\n      not\n        /* \"#utility.yul\":1098:1100   */\n      0x1f\n        /* \"#utility.yul\":1091:1096   */\n      dup4\n        /* \"#utility.yul\":1087:1101   */\n      add\n        /* \"#utility.yul\":1083:1111   */\n      and\n        /* \"#utility.yul\":1073:1111   */\n      swap1\n      pop\n        /* \"#utility.yul\":1015:1117   */\n      swap2\n      swap1\n      pop\n      jump\t// out\n        /* \"#utility.yul\":1123:1303   */\n    tag_70:\n        /* \"#utility.yul\":1171:1248   */\n      0x4e487b7100000000000000000000000000000000000000000000000000000000\n        /* \"#utility.yul\":1168:1169   */\n      0x00\n        /* \"#utility.yul\":1161:1249   */\n      mstore\n        /* \"#utility.yul\":1268:1272   */\n      0x41\n        /* \"#utility.yul\":1265:1266   */\n      0x04\n        /* \"#utility.yul\":1258:1273   */\n      mstore\n        /* \"#utility.yul\":1292:1296   */\n      0x24\n        /* \"#utility.yul\":1289:1290   */\n      0x00\n        /* \"#utility.yul\":1282:1297   */\n      revert\n        /* \"#utility.yul\":1309:1590   */\n    tag_71:\n        /* \"#utility.yul\":1392:1419   */\n      tag_116\n        /* \"#utility.yul\":1414:1418   */\n      dup3\n        /* \"#utility.yul\":1392:1419   */\n      tag_69\n      jump\t// in\n    tag_116:\n        /* \"#utility.yul\":1384:1390   */\n      dup2\n        /* \"#utility.yul\":1380:1420   */\n      add\n        /* \"#utility.yul\":1522:1528   */\n      dup2\n        /* \"#utility.yul\":1510:1520   */\n      dup2\n        /* \"#utility.yul\":1507:1529   */\n      lt\n        /* \"#utility.yul\":1486:1504   */\n      0xffffffffffffffff\n        /* \"#utility.yul\":1474:1484   */\n      dup3\n        /* \"#utility.yul\":1471:1505   */\n      gt\n        /* \"#utility.yul\":1468:1530   */\n      or\n        /* \"#utility.yul\":1465:1553   */\n      iszero\n      tag_117\n      jumpi\n        /* \"#utility.yul\":1533:1551   */\n      tag_118\n      tag_70\n      jump\t// in\n    tag_118:\n        /* \"#utility.yul\":1465:1553   */\n    tag_117:\n        /* \"#utility.yul\":1573:1583   */\n      dup1\n        /* \"#utility.yul\":1569:1571   */\n      0x40\n        /* \"#utility.yul\":1562:1584   */\n      mstore\n        /* \"#utility.yul\":1352:1590   */\n      pop\n        /* \"#utility.yul\":1309:1590   */\n      pop\n      pop\n      jump\t// out\n        /* \"#utility.yul\":1596:1725   */\n    tag_72:\n        /* \"#utility.yul\":1630:1636   */\n      0x00\n        /* \"#utility.yul\":1657:1677   */\n      tag_120\n      tag_64\n      jump\t// in\n    tag_120:\n        /* \"#utility.yul\":1647:1677   */\n      swap1\n      pop\n        /* \"#utility.yul\":1686:1719   */\n      tag_121\n        /* \"#utility.yul\":1714:1718   */\n      dup3\n        /* \"#utility.yul\":1706:1712   */\n      dup3\n        /* \"#utility.yul\":1686:1719   */\n      tag_71\n      jump\t// in\n    tag_121:\n        /* \"#utility.yul\":1596:1725   */\n      swap2\n      swap1\n      pop\n      jump\t// out\n        /* \"#utility.yul\":1731:2039   */\n    tag_73:\n        /* \"#utility.yul\":1793:1797   */\n      0x00\n        /* \"#utility.yul\":1883:1901   */\n      0xffffffffffffffff\n        /* \"#utility.yul\":1875:1881   */\n      dup3\n        /* \"#utility.yul\":1872:1902   */\n      gt\n        /* \"#utility.yul\":1869:1925   */\n      iszero\n      tag_123\n      jumpi\n        /* \"#utility.yul\":1905:1923   */\n      tag_124\n      tag_70\n      jump\t// in\n    tag_124:\n        /* \"#utility.yul\":1869:1925   */\n    tag_123:\n        /* \"#utility.yul\":1943:1972   */\n      tag_125\n        /* \"#utility.yul\":1965:1971   */\n      dup3\n        /* \"#utility.yul\":1943:1972   */\n      tag_69\n      jump\t// in\n    tag_125:\n        /* \"#utility.yul\":1935:1972   */\n      swap1\n      pop\n        /* \"#utility.yul\":2027:2031   */\n      0x20\n        /* \"#utility.yul\":2021:2025   */\n      dup2\n        /* \"#utility.yul\":2017:2032   */\n      add\n        /* \"#utility.yul\":2009:2032   */\n      swap1\n      pop\n        /* \"#utility.yul\":1731:2039   */\n      swap2\n      swap1\n      pop\n      jump\t// out\n        /* \"#utility.yul\":2045:2193   */\n    tag_74:\n        /* \"#utility.yul\":2143:2149   */\n      dup3\n        /* \"#utility.yul\":2138:2141   */\n      dup2\n        /* \"#utility.yul\":2133:2136   */\n      dup4\n        /* \"#utility.yul\":2120:2150   */\n      calldatacopy\n        /* \"#utility.yul\":2184:2185   */\n      0x00\n        /* \"#utility.yul\":2175:2181   */\n      dup4\n        /* \"#utility.yul\":2170:2173   */\n      dup4\n        /* \"#utility.yul\":2166:2182   */\n      add\n        /* \"#utility.yul\":2159:2186   */\n      mstore\n        /* \"#utility.yul\":2045:2193   */\n      pop\n      pop\n      pop\n      jump\t// out\n        /* \"#utility.yul\":2199:2624   */\n    tag_75:\n        /* \"#utility.yul\":2277:2282   */\n      0x00\n        /* \"#utility.yul\":2302:2368   */\n      tag_128\n        /* \"#utility.yul\":2318:2367   */\n      tag_129\n        /* \"#utility.yul\":2360:2366   */\n      dup5\n        /* \"#utility.yul\":2318:2367   */\n      tag_73\n      jump\t// in\n    tag_129:\n        /* \"#utility.yul\":2302:2368   */\n      tag_72\n      jump\t// in\n    tag_128:\n        /* \"#utility.yul\":2293:2368   */\n      swap1\n      pop\n        /* \"#utility.yul\":2391:2397   */\n      dup3\n        /* \"#utility.yul\":2384:2389   */\n      dup2\n        /* \"#utility.yul\":2377:2398   */\n      mstore\n        /* \"#utility.yul\":2429:2433   */\n      0x20\n        /* \"#utility.yul\":2422:2427   */\n      dup2\n        /* \"#utility.yul\":2418:2434   */\n      add\n        /* \"#utility.yul\":2467:2470   */\n      dup5\n        /* \"#utility.yul\":2458:2464   */\n      dup5\n        /* \"#utility.yul\":2453:2456   */\n      dup5\n        /* \"#utility.yul\":2449:2465   */\n      add\n        /* \"#utility.yul\":2446:2471   */\n      gt\n        /* \"#utility.yul\":2443:2555   */\n      iszero\n      tag_130\n      jumpi\n        /* \"#utility.yul\":2474:2553   */\n      tag_131\n      tag_68\n      jump\t// in\n    tag_131:\n        /* \"#utility.yul\":2443:2555   */\n    tag_130:\n        /* \"#utility.yul\":2564:2618   */\n      tag_132\n        /* \"#utility.yul\":2611:2617   */\n      dup5\n        /* \"#utility.yul\":2606:2609   */\n      dup3\n        /* \"#utility.yul\":2601:2604   */\n      dup6\n        /* \"#utility.yul\":2564:2618   */\n      tag_74\n      jump\t// in\n    tag_132:\n        /* \"#utility.yul\":2283:2624   */\n      pop\n        /* \"#utility.yul\":2199:2624   */\n      swap4\n      swap3\n      pop\n      pop\n      pop\n      jump\t// out\n        /* \"#utility.yul\":2644:2984   */\n    tag_76:\n        /* \"#utility.yul\":2700:2705   */\n      0x00\n        /* \"#utility.yul\":2749:2752   */\n      dup3\n        /* \"#utility.yul\":2742:2746   */\n      0x1f\n        /* \"#utility.yul\":2734:2740   */\n      dup4\n        /* \"#utility.yul\":2730:2747   */\n      add\n        /* \"#utility.yul\":2726:2753   */\n      slt\n        /* \"#utility.yul\":2716:2838   */\n      tag_134\n      jumpi\n        /* \"#utility.yul\":2757:2836   */\n      tag_135\n      tag_67\n      jump\t// in\n    tag_135:\n        /* \"#utility.yul\":2716:2838   */\n    tag_134:\n        /* \"#utility.yul\":2874:2880   */\n      dup2\n        /* \"#utility.yul\":2861:2881   */\n      calldataload\n        /* \"#utility.yul\":2899:2978   */\n      tag_136\n        /* \"#utility.yul\":2974:2977   */\n      dup5\n        /* \"#utility.yul\":2966:2972   */\n      dup3\n        /* \"#utility.yul\":2959:2963   */\n      0x20\n        /* \"#utility.yul\":2951:2957   */\n      dup7\n        /* \"#utility.yul\":2947:2964   */\n      add\n        /* \"#utility.yul\":2899:2978   */\n      tag_75\n      jump\t// in\n    tag_136:\n        /* \"#utility.yul\":2890:2978   */\n      swap2\n      pop\n        /* \"#utility.yul\":2706:2984   */\n      pop\n        /* \"#utility.yul\":2644:2984   */\n      swap3\n      swap2\n      pop\n      pop\n      jump\t// out\n        /* \"#utility.yul\":2990:3499   */\n    tag_17:\n        /* \"#utility.yul\":3059:3065   */\n      0x00\n        /* \"#utility.yul\":3108:3110   */\n      0x20\n        /* \"#utility.yul\":3096:3105   */\n      dup3\n        /* \"#utility.yul\":3087:3094   */\n      dup5\n        /* \"#utility.yul\":3083:3106   */\n      sub\n        /* \"#utility.yul\":3079:3111   */\n      slt\n        /* \"#utility.yul\":3076:3195   */\n      iszero\n      tag_138\n      jumpi\n        /* \"#utility.yul\":3114:3193   */\n      tag_139\n      tag_65\n      jump\t// in\n    tag_139:\n        /* \"#utility.yul\":3076:3195   */\n    tag_138:\n        /* \"#utility.yul\":3262:3263   */\n      0x00\n        /* \"#utility.yul\":3251:3260   */\n      dup3\n        /* \"#utility.yul\":3247:3264   */\n      add\n        /* \"#utility.yul\":3234:3265   */\n      calldataload\n        /* \"#utility.yul\":3292:3310   */\n      0xffffffffffffffff\n        /* \"#utility.yul\":3284:3290   */\n      dup2\n        /* \"#utility.yul\":3281:3311   */\n      gt\n        /* \"#utility.yul\":3278:3395   */\n      iszero\n      tag_140\n      jumpi\n        /* \"#utility.yul\":3314:3393   */\n      tag_141\n      tag_66\n      jump\t// in\n    tag_141:\n        /* \"#utility.yul\":3278:3395   */\n    tag_140:\n        /* \"#utility.yul\":3419:3482   */\n      tag_142\n        /* \"#utility.yul\":3474:3481   */\n      dup5\n        /* \"#utility.yul\":3465:3471   */\n      dup3\n        /* \"#utility.yul\":3454:3463   */\n      dup6\n        /* \"#utility.yul\":3450:3472   */\n      add\n        /* \"#utility.yul\":3419:3482   */\n      tag_76\n      jump\t// in\n    tag_142:\n        /* \"#utility.yul\":3409:3482   */\n      swap2\n      pop\n        /* \"#utility.yul\":3205:3492   */\n      pop\n        /* \"#utility.yul\":2990:3499   */\n      swap3\n      swap2\n      pop\n      pop\n      jump\t// out\n        /* \"#utility.yul\":3505:3627   */\n    tag_77:\n        /* \"#utility.yul\":3578:3602   */\n      tag_144\n        /* \"#utility.yul\":3596:3601   */\n      dup2\n        /* \"#utility.yul\":3578:3602   */\n      tag_62\n      jump\t// in\n    tag_144:\n        /* \"#utility.yul\":3571:3576   */\n      dup2\n        /* \"#utility.yul\":3568:3603   */\n      eq\n        /* \"#utility.yul\":3558:3621   */\n      tag_145\n      jumpi\n        /* \"#utility.yul\":3617:3618   */\n      0x00\n        /* \"#utility.yul\":3614:3615   */\n      0x00\n        /* \"#utility.yul\":3607:3619   */\n      revert\n        /* \"#utility.yul\":3558:3621   */\n    tag_145:\n        /* \"#utility.yul\":3505:3627   */\n      pop\n      jump\t// out\n        /* \"#utility.yul\":3633:3772   */\n    tag_78:\n        /* \"#utility.yul\":3679:3684   */\n      0x00\n        /* \"#utility.yul\":3717:3723   */\n      dup2\n        /* \"#utility.yul\":3704:3724   */\n      calldataload\n        /* \"#utility.yul\":3695:3724   */\n      swap1\n      pop\n        /* \"#utility.yul\":3733:3766   */\n      tag_147\n        /* \"#utility.yul\":3760:3765   */\n      dup2\n        /* \"#utility.yul\":3733:3766   */\n      tag_77\n      jump\t// in\n    tag_147:\n        /* \"#utility.yul\":3633:3772   */\n      swap3\n      swap2\n      pop\n      pop\n      jump\t// out\n        /* \"#utility.yul\":3778:4107   */\n    tag_22:\n        /* \"#utility.yul\":3837:3843   */\n      0x00\n        /* \"#utility.yul\":3886:3888   */\n      0x20\n        /* \"#utility.yul\":3874:3883   */\n      dup3\n        /* \"#utility.yul\":3865:3872   */\n      dup5\n        /* \"#utility.yul\":3861:3884   */\n      sub\n        /* \"#utility.yul\":3857:3889   */\n      slt\n        /* \"#utility.yul\":3854:3973   */\n      iszero\n      tag_149\n      jumpi\n        /* \"#utility.yul\":3892:3971   */\n      tag_150\n      tag_65\n      jump\t// in\n    tag_150:\n        /* \"#utility.yul\":3854:3973   */\n    tag_149:\n        /* \"#utility.yul\":4012:4013   */\n      0x00\n        /* \"#utility.yul\":4037:4090   */\n      tag_151\n        /* \"#utility.yul\":4082:4089   */\n      dup5\n        /* \"#utility.yul\":4073:4079   */\n      dup3\n        /* \"#utility.yul\":4062:4071   */\n      dup6\n        /* \"#utility.yul\":4058:4080   */\n      add\n        /* \"#utility.yul\":4037:4090   */\n      tag_78\n      jump\t// in\n    tag_151:\n        /* \"#utility.yul\":4027:4090   */\n      swap2\n      pop\n        /* \"#utility.yul\":3983:4100   */\n      pop\n        /* \"#utility.yul\":3778:4107   */\n      swap3\n      swap2\n      pop\n      pop\n      jump\t// out\n        /* \"#utility.yul\":4113:4212   */\n    tag_79:\n        /* \"#utility.yul\":4165:4171   */\n      0x00\n        /* \"#utility.yul\":4199:4204   */\n      dup2\n        /* \"#utility.yul\":4193:4205   */\n      mload\n        /* \"#utility.yul\":4183:4205   */\n      swap1\n      pop\n        /* \"#utility.yul\":4113:4212   */\n      swap2\n      swap1\n      pop\n      jump\t// out\n        /* \"#utility.yul\":4218:4387   */\n    tag_80:\n        /* \"#utility.yul\":4302:4313   */\n      0x00\n        /* \"#utility.yul\":4336:4342   */\n      dup3\n        /* \"#utility.yul\":4331:4334   */\n      dup3\n        /* \"#utility.yul\":4324:4343   */\n      mstore\n        /* \"#utility.yul\":4376:4380   */\n      0x20\n        /* \"#utility.yul\":4371:4374   */\n      dup3\n        /* \"#utility.yul\":4367:4381   */\n      add\n        /* \"#utility.yul\":4352:4381   */\n      swap1\n      pop\n        /* \"#utility.yul\":4218:4387   */\n      swap3\n      swap2\n      pop\n      pop\n      jump\t// out\n        /* \"#utility.yul\":4393:4532   */\n    tag_81:\n        /* \"#utility.yul\":4482:4488   */\n      dup3\n        /* \"#utility.yul\":4477:4480   */\n      dup2\n        /* \"#utility.yul\":4472:4475   */\n      dup4\n        /* \"#utility.yul\":4466:4489   */\n      mcopy\n        /* \"#utility.yul\":4523:4524   */\n      0x00\n        /* \"#utility.yul\":4514:4520   */\n      dup4\n        /* \"#utility.yul\":4509:4512   */\n      dup4\n        /* \"#utility.yul\":4505:4521   */\n      add\n        /* \"#utility.yul\":4498:4525   */\n      mstore\n        /* \"#utility.yul\":4393:4532   */\n      pop\n      pop\n      pop\n      jump\t// out\n        /* \"#utility.yul\":4538:4915   */\n    tag_82:\n        /* \"#utility.yul\":4626:4629   */\n      0x00\n        /* \"#utility.yul\":4654:4693   */\n      tag_156\n        /* \"#utility.yul\":4687:4692   */\n      dup3\n        /* \"#utility.yul\":4654:4693   */\n      tag_79\n      jump\t// in\n    tag_156:\n        /* \"#utility.yul\":4709:4780   */\n      tag_157\n        /* \"#utility.yul\":4773:4779   */\n      dup2\n        /* \"#utility.yul\":4768:4771   */\n      dup6\n        /* \"#utility.yul\":4709:4780   */\n      tag_80\n      jump\t// in\n    tag_157:\n        /* \"#utility.yul\":4702:4780   */\n      swap4\n      pop\n        /* \"#utility.yul\":4789:4854   */\n      tag_158\n        /* \"#utility.yul\":4847:4853   */\n      dup2\n        /* \"#utility.yul\":4842:4845   */\n      dup6\n        /* \"#utility.yul\":4835:4839   */\n      0x20\n        /* \"#utility.yul\":4828:4833   */\n      dup7\n        /* \"#utility.yul\":4824:4840   */\n      add\n        /* \"#utility.yul\":4789:4854   */\n      tag_81\n      jump\t// in\n    tag_158:\n        /* \"#utility.yul\":4879:4908   */\n      tag_159\n        /* \"#utility.yul\":4901:4907   */\n      dup2\n        /* \"#utility.yul\":4879:4908   */\n      tag_69\n      jump\t// in\n    tag_159:\n        /* \"#utility.yul\":4874:4877   */\n      dup5\n        /* \"#utility.yul\":4870:4909   */\n      add\n        /* \"#utility.yul\":4863:4909   */\n      swap2\n      pop\n        /* \"#utility.yul\":4630:4915   */\n      pop\n        /* \"#utility.yul\":4538:4915   */\n      swap3\n      swap2\n      pop\n      pop\n      jump\t// out\n        /* \"#utility.yul\":4921:5344   */\n    tag_27:\n        /* \"#utility.yul\":5062:5066   */\n      0x00\n        /* \"#utility.yul\":5100:5102   */\n      0x40\n        /* \"#utility.yul\":5089:5098   */\n      dup3\n        /* \"#utility.yul\":5085:5103   */\n      add\n        /* \"#utility.yul\":5077:5103   */\n      swap1\n      pop\n        /* \"#utility.yul\":5113:5184   */\n      tag_161\n        /* \"#utility.yul\":5181:5182   */\n      0x00\n        /* \"#utility.yul\":5170:5179   */\n      dup4\n        /* \"#utility.yul\":5166:5183   */\n      add\n        /* \"#utility.yul\":5157:5163   */\n      dup6\n        /* \"#utility.yul\":5113:5184   */\n      tag_63\n      jump\t// in\n    tag_161:\n        /* \"#utility.yul\":5231:5240   */\n      dup2\n        /* \"#utility.yul\":5225:5229   */\n      dup2\n        /* \"#utility.yul\":5221:5241   */\n      sub\n        /* \"#utility.yul\":5216:5218   */\n      0x20\n        /* \"#utility.yul\":5205:5214   */\n      dup4\n        /* \"#utility.yul\":5201:5219   */\n      add\n        /* \"#utility.yul\":5194:5242   */\n      mstore\n        /* \"#utility.yul\":5259:5337   */\n      tag_162\n        /* \"#utility.yul\":5332:5336   */\n      dup2\n        /* \"#utility.yul\":5323:5329   */\n      dup5\n        /* \"#utility.yul\":5259:5337   */\n      tag_82\n      jump\t// in\n    tag_162:\n        /* \"#utility.yul\":5251:5337   */\n      swap1\n      pop\n        /* \"#utility.yul\":4921:5344   */\n      swap4\n      swap3\n      pop\n      pop\n      pop\n      jump\t// out\n        /* \"#utility.yul\":5350:6004   */\n    tag_34:\n        /* \"#utility.yul\":5428:5434   */\n      0x00\n        /* \"#utility.yul\":5436:5442   */\n      0x00\n        /* \"#utility.yul\":5485:5487   */\n      0x40\n        /* \"#utility.yul\":5473:5482   */\n      dup4\n        /* \"#utility.yul\":5464:5471   */\n      dup6\n        /* \"#utility.yul\":5460:5483   */\n      sub\n        /* \"#utility.yul\":5456:5488   */\n      slt\n        /* \"#utility.yul\":5453:5572   */\n      iszero\n      tag_164\n      jumpi\n        /* \"#utility.yul\":5491:5570   */\n      tag_165\n      tag_65\n      jump\t// in\n    tag_165:\n        /* \"#utility.yul\":5453:5572   */\n    tag_164:\n        /* \"#utility.yul\":5639:5640   */\n      0x00\n        /* \"#utility.yul\":5628:5637   */\n      dup4\n        /* \"#utility.yul\":5624:5641   */\n      add\n        /* \"#utility.yul\":5611:5642   */\n      calldataload\n        /* \"#utility.yul\":5669:5687   */\n      0xffffffffffffffff\n        /* \"#utility.yul\":5661:5667   */\n      dup2\n        /* \"#utility.yul\":5658:5688   */\n      gt\n        /* \"#utility.yul\":5655:5772   */\n      iszero\n      tag_166\n      jumpi\n        /* \"#utility.yul\":5691:5770   */\n      tag_167\n      tag_66\n      jump\t// in\n    tag_167:\n        /* \"#utility.yul\":5655:5772   */\n    tag_166:\n        /* \"#utility.yul\":5796:5859   */\n      tag_168\n        /* \"#utility.yul\":5851:5858   */\n      dup6\n        /* \"#utility.yul\":5842:5848   */\n      dup3\n        /* \"#utility.yul\":5831:5840   */\n      dup7\n        /* \"#utility.yul\":5827:5849   */\n      add\n        /* \"#utility.yul\":5796:5859   */\n      tag_76\n      jump\t// in\n    tag_168:\n        /* \"#utility.yul\":5786:5859   */\n      swap3\n      pop\n        /* \"#utility.yul\":5582:5869   */\n      pop\n        /* \"#utility.yul\":5908:5910   */\n      0x20\n        /* \"#utility.yul\":5934:5987   */\n      tag_169\n        /* \"#utility.yul\":5979:5986   */\n      dup6\n        /* \"#utility.yul\":5970:5976   */\n      dup3\n        /* \"#utility.yul\":5959:5968   */\n      dup7\n        /* \"#utility.yul\":5955:5977   */\n      add\n        /* \"#utility.yul\":5934:5987   */\n      tag_78\n      jump\t// in\n    tag_169:\n        /* \"#utility.yul\":5924:5987   */\n      swap2\n      pop\n        /* \"#utility.yul\":5879:5997   */\n      pop\n        /* \"#utility.yul\":5350:6004   */\n      swap3\n      pop\n      swap3\n      swap1\n      pop\n      jump\t// out\n        /* \"#utility.yul\":6010:6190   */\n    tag_83:\n        /* \"#utility.yul\":6058:6135   */\n      0x4e487b7100000000000000000000000000000000000000000000000000000000\n        /* \"#utility.yul\":6055:6056   */\n      0x00\n        /* \"#utility.yul\":6048:6136   */\n      mstore\n        /* \"#utility.yul\":6155:6159   */\n      0x11\n        /* \"#utility.yul\":6152:6153   */\n      0x04\n        /* \"#utility.yul\":6145:6160   */\n      mstore\n        /* \"#utility.yul\":6179:6183   */\n      0x24\n        /* \"#utility.yul\":6176:6177   */\n      0x00\n        /* \"#utility.yul\":6169:6184   */\n      revert\n        /* \"#utility.yul\":6196:6387   */\n    tag_42:\n        /* \"#utility.yul\":6236:6239   */\n      0x00\n        /* \"#utility.yul\":6255:6275   */\n      tag_172\n        /* \"#utility.yul\":6273:6274   */\n      dup3\n        /* \"#utility.yul\":6255:6275   */\n      tag_62\n      jump\t// in\n    tag_172:\n        /* \"#utility.yul\":6250:6275   */\n      swap2\n      pop\n        /* \"#utility.yul\":6289:6309   */\n      tag_173\n        /* \"#utility.yul\":6307:6308   */\n      dup4\n        /* \"#utility.yul\":6289:6309   */\n      tag_62\n      jump\t// in\n    tag_173:\n        /* \"#utility.yul\":6284:6309   */\n      swap3\n      pop\n        /* \"#utility.yul\":6332:6333   */\n      dup3\n        /* \"#utility.yul\":6329:6330   */\n      dup3\n        /* \"#utility.yul\":6325:6334   */\n      add\n        /* \"#utility.yul\":6318:6334   */\n      swap1\n      pop\n        /* \"#utility.yul\":6353:6356   */\n      dup1\n        /* \"#utility.yul\":6350:6351   */\n      dup3\n        /* \"#utility.yul\":6347:6357   */\n      gt\n        /* \"#utility.yul\":6344:6380   */\n      iszero\n      tag_174\n      jumpi\n        /* \"#utility.yul\":6360:6378   */\n      tag_175\n      tag_83\n      jump\t// in\n    tag_175:\n        /* \"#utility.yul\":6344:6380   */\n    tag_174:\n        /* \"#utility.yul\":6196:6387   */\n      swap3\n      swap2\n      pop\n      pop\n      jump\t// out\n        /* \"#utility.yul\":6393:6573   */\n    tag_84:\n        /* \"#utility.yul\":6441:6518   */\n      0x4e487b7100000000000000000000000000000000000000000000000000000000\n        /* \"#utility.yul\":6438:6439   */\n      0x00\n        /* \"#utility.yul\":6431:6519   */\n      mstore\n        /* \"#utility.yul\":6538:6542   */\n      0x22\n        /* \"#utility.yul\":6535:6536   */\n      0x04\n        /* \"#utility.yul\":6528:6543   */\n      mstore\n        /* \"#utility.yul\":6562:6566   */\n      0x24\n        /* \"#utility.yul\":6559:6560   */\n      0x00\n        /* \"#utility.yul\":6552:6567   */\n      revert\n        /* \"#utility.yul\":6579:6899   */\n    tag_44:\n        /* \"#utility.yul\":6623:6629   */\n      0x00\n        /* \"#utility.yul\":6660:6661   */\n      0x02\n        /* \"#utility.yul\":6654:6658   */\n      dup3\n        /* \"#utility.yul\":6650:6662   */\n      div\n        /* \"#utility.yul\":6640:6662   */\n      swap1\n      pop\n        /* \"#utility.yul\":6707:6708   */\n      0x01\n        /* \"#utility.yul\":6701:6705   */\n      dup3\n        /* \"#utility.yul\":6697:6709   */\n      and\n        /* \"#utility.yul\":6728:6746   */\n      dup1\n        /* \"#utility.yul\":6718:6799   */\n      tag_178\n      jumpi\n        /* \"#utility.yul\":6784:6788   */\n      0x7f\n        /* \"#utility.yul\":6776:6782   */\n      dup3\n        /* \"#utility.yul\":6772:6789   */\n      and\n        /* \"#utility.yul\":6762:6789   */\n      swap2\n      pop\n        /* \"#utility.yul\":6718:6799   */\n    tag_178:\n        /* \"#utility.yul\":6846:6848   */\n      0x20\n        /* \"#utility.yul\":6838:6844   */\n      dup3\n        /* \"#utility.yul\":6835:6849   */\n      lt\n        /* \"#utility.yul\":6815:6833   */\n      dup2\n        /* \"#utility.yul\":6812:6850   */\n      sub\n        /* \"#utility.yul\":6809:6893   */\n      tag_179\n      jumpi\n        /* \"#utility.yul\":6865:6883   */\n      tag_180\n      tag_84\n      jump\t// in\n    tag_180:\n        /* \"#utility.yul\":6809:6893   */\n    tag_179:\n        /* \"#utility.yul\":6630:6899   */\n      pop\n        /* \"#utility.yul\":6579:6899   */\n      swap2\n      swap1\n      pop\n      jump\t// out\n        /* \"#utility.yul\":6905:7046   */\n    tag_85:\n        /* \"#utility.yul\":6954:6958   */\n      0x00\n        /* \"#utility.yul\":6977:6980   */\n      dup2\n        /* \"#utility.yul\":6969:6980   */\n      swap1\n      pop\n        /* \"#utility.yul\":7000:7003   */\n      dup2\n        /* \"#utility.yul\":6997:6998   */\n      0x00\n        /* \"#utility.yul\":6990:7004   */\n      mstore\n        /* \"#utility.yul\":7034:7038   */\n      0x20\n        /* \"#utility.yul\":7031:7032   */\n      0x00\n        /* \"#utility.yul\":7021:7039   */\n      keccak256\n        /* \"#utility.yul\":7013:7039   */\n      swap1\n      pop\n        /* \"#utility.yul\":6905:7046   */\n      swap2\n      swap1\n      pop\n      jump\t// out\n        /* \"#utility.yul\":7052:7145   */\n    tag_86:\n        /* \"#utility.yul\":7089:7095   */\n      0x00\n        /* \"#utility.yul\":7136:7138   */\n      0x20\n        /* \"#utility.yul\":7131:7133   */\n      0x1f\n        /* \"#utility.yul\":7124:7129   */\n      dup4\n        /* \"#utility.yul\":7120:7134   */\n      add\n        /* \"#utility.yul\":7116:7139   */\n      div\n        /* \"#utility.yul\":7106:7139   */\n      swap1\n      pop\n        /* \"#utility.yul\":7052:7145   */\n      swap2\n      swap1\n      pop\n      jump\t// out\n        /* \"#utility.yul\":7151:7258   */\n    tag_87:\n        /* \"#utility.yul\":7195:7203   */\n      0x00\n        /* \"#utility.yul\":7245:7250   */\n      dup3\n        /* \"#utility.yul\":7239:7243   */\n      dup3\n        /* \"#utility.yul\":7235:7251   */\n      shl\n        /* \"#utility.yul\":7214:7251   */\n      swap1\n      pop\n        /* \"#utility.yul\":7151:7258   */\n      swap3\n      swap2\n      pop\n      pop\n      jump\t// out\n        /* \"#utility.yul\":7264:7657   */\n    tag_88:\n        /* \"#utility.yul\":7333:7339   */\n      0x00\n        /* \"#utility.yul\":7383:7384   */\n      0x08\n        /* \"#utility.yul\":7371:7381   */\n      dup4\n        /* \"#utility.yul\":7367:7385   */\n      mul\n        /* \"#utility.yul\":7406:7503   */\n      tag_185\n        /* \"#utility.yul\":7436:7502   */\n      0xffffffffffffffffffffffffffffffffffffffffffffffffffffffffffffffff\n        /* \"#utility.yul\":7425:7434   */\n      dup3\n        /* \"#utility.yul\":7406:7503   */\n      tag_87\n      jump\t// in\n    tag_185:\n        /* \"#utility.yul\":7524:7563   */\n      tag_186\n        /* \"#utility.yul\":7554:7562   */\n      dup7\n        /* \"#utility.yul\":7543:7552   */\n      dup4\n        /* \"#utility.yul\":7524:7563   */\n      tag_87\n      jump\t// in\n    tag_186:\n        /* \"#utility.yul\":7512:7563   */\n      swap6\n      pop\n        /* \"#utility.yul\":7596:7600   */\n      dup1\n        /* \"#utility.yul\":7592:7601   */\n      not\n        /* \"#utility.yul\":7585:7590   */\n      dup5\n        /* \"#utility.yul\":7581:7602   */\n      and\n        /* \"#utility.yul\":7572:7602   */\n      swap4\n      pop\n        /* \"#utility.yul\":7645:7649   */\n      dup1\n        /* \"#utility.yul\":7635:7643   */\n      dup7\n        /* \"#utility.yul\":7631:7650   */\n      and\n        /* \"#utility.yul\":7624:7629   */\n      dup5\n        /* \"#utility.yul\":7621:7651   */\n      or\n        /* \"#utility.yul\":7611:7651   */\n      swap3\n      pop\n        /* \"#utility.yul\":7340:7657   */\n      pop\n      pop\n        /* \"#utility.yul\":7264:7657   */\n      swap4\n      swap3\n      pop\n      pop\n      pop\n      jump\t// out\n        /* \"#utility.yul\":7663:7723   */\n    tag_89:\n        /* \"#utility.yul\":7691:7694   */\n      0x00\n        /* \"#utility.yul\":7712:7717   */\n      dup2\n        /* \"#utility.yul\":7705:7717   */\n      swap1\n      pop\n        /* \"#utility.yul\":7663:7723   */\n      swap2\n      swap1\n      pop\n      jump\t// out\n        /* \"#utility.yul\":7729:7871   */\n    tag_90:\n        /* \"#utility.yul\":7779:7788   */\n      0x00\n        /* \"#utility.yul\":7812:7865   */\n      tag_189\n        /* \"#utility.yul\":7830:7864   */\n      tag_190\n        /* \"#utility.yul\":7839:7863   */\n      tag_191\n        /* \"#utility.yul\":7857:7862   */\n      dup5\n        /* \"#utility.yul\":7839:7863   */\n      tag_62\n      jump\t// in\n    tag_191:\n        /* \"#utility.yul\":7830:7864   */\n      tag_89\n      jump\t// in\n    tag_190:\n        /* \"#utility.yul\":7812:7865   */\n      tag_62\n      jump\t// in\n    tag_189:\n        /* \"#utility.yul\":7799:7865   */\n      swap1\n      pop\n        /* \"#utility.yul\":7729:7871   */\n      swap2\n      swap1\n      pop\n      jump\t// out\n        /* \"#utility.yul\":7877:7952   */\n    tag_91:\n        /* \"#utility.yul\":7920:7923   */\n      0x00\n        /* \"#utility.yul\":7941:7946   */\n      dup2\n        /* \"#utility.yul\":7934:7946   */\n      swap1\n      pop\n        /* \"#utility.yul\":7877:7952   */\n      swap2\n      swap1\n      pop\n      jump\t// out\n        /* \"#utility.yul\":7958:8227   */\n    tag_92:\n        /* \"#utility.yul\":8068:8107   */\n      tag_194\n        /* \"#utility.yul\":8099:8106   */\n      dup4\n        /* \"#utility.yul\":8068:8107   */\n      tag_90\n      jump\t// in\n    tag_194:\n        /* \"#utility.yul\":8129:8220   */\n      tag_195\n        /* \"#utility.yul\":8178:8219   */\n      tag_196\n        /* \"#utility.yul\":8202:8218   */\n      dup3\n        /* \"#utility.yul\":8178:8219   */\n      tag_91\n      jump\t// in\n    tag_196:\n        /* \"#utility.yul\":8170:8176   */\n      dup5\n        /* \"#utility.yul\":8163:8167   */\n      dup5\n        /* \"#utility.yul\":8157:8168   */\n      sload\n        /* \"#utility.yul\":8129:8220   */\n      tag_88\n      jump\t// in\n    tag_195:\n        /* \"#utility.yul\":8123:8127   */\n      dup3\n        /* \"#utility.yul\":8116:8221   */\n      sstore\n        /* \"#utility.yul\":8034:8227   */\n      pop\n        /* \"#utility.yul\":7958:8227   */\n      pop\n      pop\n      pop\n      jump\t// out\n        /* \"#utility.yul\":8233:8306   */\n    tag_93:\n        /* \"#utility.yul\":8278:8281   */\n      0x00\n        /* \"#utility.yul\":8299:8300   */\n      0x00\n        /* \"#utility.yul\":8292:8300   */\n      swap1\n      pop\n        /* \"#utility.yul\":8233:8306   */\n      swap1\n      jump\t// out\n        /* \"#utility.yul\":8312:8501   */\n    tag_94:\n        /* \"#utility.yul\":8389:8421   */\n      tag_199\n      tag_93\n      jump\t// in\n    tag_199:\n        /* \"#utility.yul\":8430:8495   */\n      tag_200\n        /* \"#utility.yul\":8488:8494   */\n      dup2\n        /* \"#utility.yul\":8480:8486   */\n      dup5\n        /* \"#utility.yul\":8474:8478   */\n      dup5\n        /* \"#utility.yul\":8430:8495   */\n      tag_92\n      jump\t// in\n    tag_200:\n        /* \"#utility.yul\":8365:8501   */\n      pop\n        /* \"#utility.yul\":8312:8501   */\n      pop\n      pop\n      jump\t// out\n        /* \"#utility.yul\":8507:8693   */\n    tag_95:\n        /* \"#utility.yul\":8567:8687   */\n    tag_202:\n        /* \"#utility.yul\":8584:8587   */\n      dup2\n        /* \"#utility.yul\":8577:8582   */\n      dup2\n        /* \"#utility.yul\":8574:8588   */\n      lt\n        /* \"#utility.yul\":8567:8687   */\n      iszero\n      tag_204\n      jumpi\n        /* \"#utility.yul\":8638:8677   */\n      tag_205\n        /* \"#utility.yul\":8675:8676   */\n      0x00\n        /* \"#utility.yul\":8668:8673   */\n      dup3\n        /* \"#utility.yul\":8638:8677   */\n      tag_94\n      jump\t// in\n    tag_205:\n        /* \"#utility.yul\":8611:8612   */\n      0x01\n        /* \"#utility.yul\":8604:8609   */\n      dup2\n        /* \"#utility.yul\":8600:8613   */\n      add\n        /* \"#utility.yul\":8591:8613   */\n      swap1\n      pop\n        /* \"#utility.yul\":8567:8687   */\n      jump(tag_202)\n    tag_204:\n        /* \"#utility.yul\":8507:8693   */\n      pop\n      pop\n      jump\t// out\n        /* \"#utility.yul\":8699:9242   */\n    tag_96:\n        /* \"#utility.yul\":8800:8802   */\n      0x1f\n        /* \"#utility.yul\":8795:8798   */\n      dup3\n        /* \"#utility.yul\":8792:8803   */\n      gt\n        /* \"#utility.yul\":8789:9235   */\n      iszero\n      tag_207\n      jumpi\n        /* \"#utility.yul\":8834:8872   */\n      tag_208\n        /* \"#utility.yul\":8866:8871   */\n      dup2\n        /* \"#utility.yul\":8834:8872   */\n      tag_85\n      jump\t// in\n    tag_208:\n        /* \"#utility.yul\":8918:8947   */\n      tag_209\n        /* \"#utility.yul\":8936:8946   */\n      dup5\n        /* \"#utility.yul\":8918:8947   */\n      tag_86\n      jump\t// in\n    tag_209:\n        /* \"#utility.yul\":8908:8916   */\n      dup2\n        /* \"#utility.yul\":8904:8948   */\n      add\n        /* \"#utility.yul\":9101:9103   */\n      0x20\n        /* \"#utility.yul\":9089:9099   */\n      dup6\n        /* \"#utility.yul\":9086:9104   */\n      lt\n        /* \"#utility.yul\":9083:9132   */\n      iszero\n      tag_210\n      jumpi\n        /* \"#utility.yul\":9122:9130   */\n      dup2\n        /* \"#utility.yul\":9107:9130   */\n      swap1\n      pop\n        /* \"#utility.yul\":9083:9132   */\n    tag_210:\n        /* \"#utility.yul\":9145:9225   */\n      tag_211\n        /* \"#utility.yul\":9201:9223   */\n      tag_212\n        /* \"#utility.yul\":9219:9222   */\n      dup6\n        /* \"#utility.yul\":9201:9223   */\n      tag_86\n      jump\t// in\n    tag_212:\n        /* \"#utility.yul\":9191:9199   */\n      dup4\n        /* \"#utility.yul\":9187:9224   */\n      add\n        /* \"#utility.yul\":9174:9185   */\n      dup3\n        /* \"#utility.yul\":9145:9225   */\n      tag_95\n      jump\t// in\n    tag_211:\n        /* \"#utility.yul\":8804:9235   */\n      pop\n      pop\n        /* \"#utility.yul\":8789:9235   */\n    tag_207:\n        /* \"#utility.yul\":8699:9242   */\n      pop\n      pop\n      pop\n      jump\t// out\n        /* \"#utility.yul\":9248:9365   */\n    tag_97:\n        /* \"#utility.yul\":9302:9310   */\n      0x00\n        /* \"#utility.yul\":9352:9357   */\n      dup3\n        /* \"#utility.yul\":9346:9350   */\n      dup3\n        /* \"#utility.yul\":9342:9358   */\n      shr\n        /* \"#utility.yul\":9321:9358   */\n      swap1\n      pop\n        /* \"#utility.yul\":9248:9365   */\n      swap3\n      swap2\n      pop\n      pop\n      jump\t// out\n        /* \"#utility.yul\":9371:9540   */\n    tag_98:\n        /* \"#utility.yul\":9415:9421   */\n      0x00\n        /* \"#utility.yul\":9448:9499   */\n      tag_215\n        /* \"#utility.yul\":9496:9497   */\n      0x00\n        /* \"#utility.yul\":9492:9498   */\n      not\n        /* \"#utility.yul\":9484:9489   */\n      dup5\n        /* \"#utility.yul\":9481:9482   */\n      0x08\n        /* \"#utility.yul\":9477:9490   */\n      mul\n        /* \"#utility.yul\":9448:9499   */\n      tag_97\n      jump\t// in\n    tag_215:\n        /* \"#utility.yul\":9444:9500   */\n      not\n        /* \"#utility.yul\":9529:9533   */\n      dup1\n        /* \"#utility.yul\":9523:9527   */\n      dup4\n        /* \"#utility.yul\":9519:9534   */\n      and\n        /* \"#utility.yul\":9509:9534   */\n      swap2\n      pop\n        /* \"#utility.yul\":9422:9540   */\n      pop\n        /* \"#utility.yul\":9371:9540   */\n      swap3\n      swap2\n      pop\n      pop\n      jump\t// out\n        /* \"#utility.yul\":9545:9840   */\n    tag_99:\n        /* \"#utility.yul\":9621:9625   */\n      0x00\n        /* \"#utility.yul\":9767:9796   */\n      tag_217\n        /* \"#utility.yul\":9792:9795   */\n      dup4\n        /* \"#utility.yul\":9786:9790   */\n      dup4\n        /* \"#utility.yul\":9767:9796   */\n      tag_98\n      jump\t// in\n    tag_217:\n        /* \"#utility.yul\":9759:9796   */\n      swap2\n      pop\n        /* \"#utility.yul\":9829:9832   */\n      dup3\n        /* \"#utility.yul\":9826:9827   */\n      0x02\n        /* \"#utility.yul\":9822:9833   */\n      mul\n        /* \"#utility.yul\":9816:9820   */\n      dup3\n        /* \"#utility.yul\":9813:9834   */\n      or\n        /* \"#utility.yul\":9805:9834   */\n      swap1\n      pop\n        /* \"#utility.yul\":9545:9840   */\n      swap3\n      swap2\n      pop\n      pop\n      jump\t// out\n        /* \"#utility.yul\":9845:11240   */\n    tag_59:\n        /* \"#utility.yul\":9962:9999   */\n      tag_219\n        /* \"#utility.yul\":9995:9998   */\n      dup3\n        /* \"#utility.yul\":9962:9999   */\n      tag_79\n      jump\t// in\n    tag_219:\n        /* \"#utility.yul\":10064:10082   */\n      0xffffffffffffffff\n        /* \"#utility.yul\":10056:10062   */\n      dup2\n        /* \"#utility.yul\":10053:10083   */\n      gt\n        /* \"#utility.yul\":10050:10106   */\n      iszero\n      tag_220\n      jumpi\n        /* \"#utility.yul\":10086:10104   */\n      tag_221\n      tag_70\n      jump\t// in\n    tag_221:\n        /* \"#utility.yul\":10050:10106   */\n    tag_220:\n        /* \"#utility.yul\":10130:10168   */\n      tag_222\n        /* \"#utility.yul\":10162:10166   */\n      dup3\n        /* \"#utility.yul\":10156:10167   */\n      sload\n        /* \"#utility.yul\":10130:10168   */\n      tag_44\n      jump\t// in\n    tag_222:\n        /* \"#utility.yul\":10215:10282   */\n      tag_223\n        /* \"#utility.yul\":10275:10281   */\n      dup3\n        /* \"#utility.yul\":10267:10273   */\n      dup3\n        /* \"#utility.yul\":10261:10265   */\n      dup6\n        /* \"#utility.yul\":10215:10282   */\n      tag_96\n      jump\t// in\n    tag_223:\n        /* \"#utility.yul\":10309:10310   */\n      0x00\n        /* \"#utility.yul\":10333:10337   */\n      0x20\n        /* \"#utility.yul\":10320:10337   */\n      swap1\n      pop\n        /* \"#utility.yul\":10365:10367   */\n      0x1f\n        /* \"#utility.yul\":10357:10363   */\n      dup4\n        /* \"#utility.yul\":10354:10368   */\n      gt\n        /* \"#utility.yul\":10382:10383   */\n      0x01\n        /* \"#utility.yul\":10377:10995   */\n      dup2\n      eq\n      tag_225\n      jumpi\n        /* \"#utility.yul\":11039:11040   */\n      0x00\n        /* \"#utility.yul\":11056:11062   */\n      dup5\n        /* \"#utility.yul\":11053:11130   */\n      iszero\n      tag_226\n      jumpi\n        /* \"#utility.yul\":11105:11114   */\n      dup3\n        /* \"#utility.yul\":11100:11103   */\n      dup8\n        /* \"#utility.yul\":11096:11115   */\n      add\n        /* \"#utility.yul\":11090:11116   */\n      mload\n        /* \"#utility.yul\":11081:11116   */\n      swap1\n      pop\n        /* \"#utility.yul\":11053:11130   */\n    tag_226:\n        /* \"#utility.yul\":11156:11223   */\n      tag_227\n        /* \"#utility.yul\":11216:11222   */\n      dup6\n        /* \"#utility.yul\":11209:11214   */\n      dup3\n        /* \"#utility.yul\":11156:11223   */\n      tag_99\n      jump\t// in\n    tag_227:\n        /* \"#utility.yul\":11150:11154   */\n      dup7\n        /* \"#utility.yul\":11143:11224   */\n      sstore\n        /* \"#utility.yul\":11012:11234   */\n      pop\n        /* \"#utility.yul\":10347:11234   */\n      jump(tag_224)\n        /* \"#utility.yul\":10377:10995   */\n    tag_225:\n        /* \"#utility.yul\":10429:10433   */\n      0x1f\n        /* \"#utility.yul\":10425:10434   */\n      not\n        /* \"#utility.yul\":10417:10423   */\n      dup5\n        /* \"#utility.yul\":10413:10435   */\n      and\n        /* \"#utility.yul\":10463:10500   */\n      tag_228\n        /* \"#utility.yul\":10495:10499   */\n      dup7\n        /* \"#utility.yul\":10463:10500   */\n      tag_85\n      jump\t// in\n    tag_228:\n        /* \"#utility.yul\":10522:10523   */\n      0x00\n        /* \"#utility.yul\":10536:10744   */\n    tag_229:\n        /* \"#utility.yul\":10550:10557   */\n      dup3\n        /* \"#utility.yul\":10547:10548   */\n      dup2\n        /* \"#utility.yul\":10544:10558   */\n      lt\n        /* \"#utility.yul\":10536:10744   */\n      iszero\n      tag_231\n      jumpi\n        /* \"#utility.yul\":10629:10638   */\n      dup5\n        /* \"#utility.yul\":10624:10627   */\n      dup10\n        /* \"#utility.yul\":10620:10639   */\n      add\n        /* \"#utility.yul\":10614:10640   */\n      mload\n        /* \"#utility.yul\":10606:10612   */\n      dup3\n        /* \"#utility.yul\":10599:10641   */\n      sstore\n        /* \"#utility.yul\":10680:10681   */\n      0x01\n        /* \"#utility.yul\":10672:10678   */\n      dup3\n        /* \"#utility.yul\":10668:10682   */\n      add\n        /* \"#utility.yul\":10658:10682   */\n      swap2\n      pop\n        /* \"#utility.yul\":10727:10729   */\n      0x20\n        /* \"#utility.yul\":10716:10725   */\n      dup6\n        /* \"#utility.yul\":10712:10730   */\n      add\n        /* \"#utility.yul\":10699:10730   */\n      swap5\n      pop\n        /* \"#utility.yul\":10573:10577   */\n      0x20\n        /* \"#utility.yul\":10570:10571   */\n      dup2\n        /* \"#utility.yul\":10566:10578   */\n      add\n        /* \"#utility.yul\":10561:10578   */\n      swap1\n      pop\n        /* \"#utility.yul\":10536:10744   */\n      jump(tag_229)\n    tag_231:\n        /* \"#utility.yul\":10772:10778   */\n      dup7\n        /* \"#utility.yul\":10763:10770   */\n      dup4\n        /* \"#utility.yul\":10760:10779   */\n      lt\n        /* \"#utility.yul\":10757:10936   */\n      iszero\n      tag_232\n      jumpi\n        /* \"#utility.yul\":10830:10839   */\n      dup5\n        /* \"#utility.yul\":10825:10828   */\n      dup10\n        /* \"#utility.yul\":10821:10840   */\n      add\n        /* \"#utility.yul\":10815:10841   */\n      mload\n        /* \"#utility.yul\":10873:10921   */\n      tag_233\n        /* \"#utility.yul\":10915:10919   */\n      0x1f\n        /* \"#utility.yul\":10907:10913   */\n      dup10\n        /* \"#utility.yul\":10903:10920   */\n      and\n        /* \"#utility.yul\":10892:10901   */\n      dup3\n        /* \"#utility.yul\":10873:10921   */\n      tag_98\n      jump\t// in\n    tag_233:\n        /* \"#utility.yul\":10865:10871   */\n      dup4\n        /* \"#utility.yul\":10858:10922   */\n      sstore\n        /* \"#utility.yul\":10780:10936   */\n      pop\n        /* \"#utility.yul\":10757:10936   */\n    tag_232:\n        /* \"#utility.yul\":10982:10983   */\n      0x01\n        /* \"#utility.yul\":10978:10979   */\n      0x02\n        /* \"#utility.yul\":10970:10976   */\n      dup9\n        /* \"#utility.yul\":10966:10980   */\n      mul\n        /* \"#utility.yul\":10962:10984   */\n      add\n        /* \"#utility.yul\":10956:10960   */\n      dup9\n        /* \"#utility.yul\":10949:10985   */\n      sstore\n        /* \"#utility.yul\":10384:10995   */\n      pop\n      pop\n      pop\n        /* \"#utility.yul\":10347:11234   */\n    tag_224:\n      pop\n        /* \"#utility.yul\":9937:11240   */\n      pop\n      pop\n      pop\n        /* \"#utility.yul\":9845:11240   */\n      pop\n      pop\n      jump\t// out\n        /* \"#utility.yul\":11246:11394   */\n    tag_100:\n        /* \"#utility.yul\":11348:11359   */\n      0x00\n        /* \"#utility.yul\":11385:11388   */\n      dup2\n        /* \"#utility.yul\":11370:11388   */\n      swap1\n      pop\n        /* \"#utility.yul\":11246:11394   */\n      swap3\n      swap2\n      pop\n      pop\n      jump\t// out\n        /* \"#utility.yul\":11400:11790   */\n    tag_101:\n        /* \"#utility.yul\":11506:11509   */\n      0x00\n        /* \"#utility.yul\":11534:11573   */\n      tag_236\n        /* \"#utility.yul\":11567:11572   */\n      dup3\n        /* \"#utility.yul\":11534:11573   */\n      tag_79\n      jump\t// in\n    tag_236:\n        /* \"#utility.yul\":11589:11678   */\n      tag_237\n        /* \"#utility.yul\":11671:11677   */\n      dup2\n        /* \"#utility.yul\":11666:11669   */\n      dup6\n        /* \"#utility.yul\":11589:11678   */\n      tag_100\n      jump\t// in\n    tag_237:\n        /* \"#utility.yul\":11582:11678   */\n      swap4\n      pop\n        /* \"#utility.yul\":11687:11752   */\n      tag_238\n        /* \"#utility.yul\":11745:11751   */\n      dup2\n        /* \"#utility.yul\":11740:11743   */\n      dup6\n        /* \"#utility.yul\":11733:11737   */\n      0x20\n        /* \"#utility.yul\":11726:11731   */\n      dup7\n        /* \"#utility.yul\":11722:11738   */\n      add\n        /* \"#utility.yul\":11687:11752   */\n      tag_81\n      jump\t// in\n    tag_238:\n        /* \"#utility.yul\":11777:11783   */\n      dup1\n        /* \"#utility.yul\":11772:11775   */\n      dup5\n        /* \"#utility.yul\":11768:11784   */\n      add\n        /* \"#utility.yul\":11761:11784   */\n      swap2\n      pop\n        /* \"#utility.yul\":11510:11790   */\n      pop\n        /* \"#utility.yul\":11400:11790   */\n      swap3\n      swap2\n      pop\n      pop\n      jump\t// out\n        /* \"#utility.yul\":11796:12071   */\n    tag_61:\n        /* \"#utility.yul\":11928:11931   */\n      0x00\n        /* \"#utility.yul\":11950:12045   */\n      tag_240\n        /* \"#utility.yul\":12041:12044   */\n      dup3\n        /* \"#utility.yul\":12032:12038   */\n      dup5\n        /* \"#utility.yul\":11950:12045   */\n      tag_101\n      jump\t// in\n    tag_240:\n        /* \"#utility.yul\":11943:12045   */\n      swap2\n      pop\n        /* \"#utility.yul\":12062:12065   */\n      dup2\n        /* \"#utility.yul\":12055:12065   */\n      swap1\n      pop\n        /* \"#utility.yul\":11796:12071   */\n      swap3\n      swap2\n      pop\n      pop\n      jump\t// out\n\n    auxdata: 0xa264697066735822122087a02586b7dc720c5be15cf901cc7eab9fbc46d06044ae0b8b3b961801213e8064736f6c634300081e0033\n}\n",
				"bytecode": {
					"linkReferences": {},
					"object": "60806040526040518060400160405280600a81526020016040518060400160405280600381526020017f706174000000000000000000000000000000000000000000000000000000000081525081525060025f820151815f0155602082015181600101908161006e91906102bf565b50505034801561007c575f5ffd5b5061038e565b5f81519050919050565b7f4e487b71000000000000000000000000000000000000000000000000000000005f52604160045260245ffd5b7f4e487b71000000000000000000000000000000000000000000000000000000005f52602260045260245ffd5b5f60028204905060018216806100fd57607f821691505b6020821081036101105761010f6100b9565b5b50919050565b5f819050815f5260205f209050919050565b5f6020601f8301049050919050565b5f82821b905092915050565b5f600883026101727fffffffffffffffffffffffffffffffffffffffffffffffffffffffffffffffff82610137565b61017c8683610137565b95508019841693508086168417925050509392505050565b5f819050919050565b5f819050919050565b5f6101c06101bb6101b684610194565b61019d565b610194565b9050919050565b5f819050919050565b6101d9836101a6565b6101ed6101e5826101c7565b848454610143565b825550505050565b5f5f905090565b6102046101f5565b61020f8184846101d0565b505050565b5b81811015610232576102275f826101fc565b600181019050610215565b5050565b601f8211156102775761024881610116565b61025184610128565b81016020851015610260578190505b61027461026c85610128565b830182610214565b50505b505050565b5f82821c905092915050565b5f6102975f198460080261027c565b1980831691505092915050565b5f6102af8383610288565b9150826002028217905092915050565b6102c882610082565b67ffffffffffffffff8111156102e1576102e061008c565b5b6102eb82546100e6565b6102f6828285610236565b5f60209050601f831160018114610327575f8415610315578287015190505b61031f85826102a4565b865550610386565b601f19841661033586610116565b5f5b8281101561035c57848901518255600182019150602085019450602081019050610337565b868310156103795784890151610375601f891682610288565b8355505b6001600288020188555050505b505050505050565b610a468061039b5f395ff3fe608060405234801561000f575f5ffd5b506004361061007b575f3560e01c8063b4a24f5011610059578063b4a24f50146100e9578063bf119bdb14610108578063e1b3202a14610139578063ee461d15146101555761007b565b80632e64cec11461007f57806343ec8f471461009d5780636057361d146100cd575b5f5ffd5b610087610173565b60405161009491906103aa565b60405180910390f35b6100b760048036038101906100b29190610510565b61017b565b6040516100c491906103aa565b60405180910390f35b6100e760048036038101906100e29190610581565b6101a8565b005b6100f16101bd565b6040516100ff92919061060c565b60405180910390f35b610122600480360381019061011d9190610581565b610254565b60405161013092919061060c565b60405180910390f35b610153600480360381019061014e919061063a565b610309565b005b61015d61038d565b60405161016a91906103aa565b60405180910390f35b5f5f54905090565b6005818051602081018201805184825260208301602085012081835280955050505050505f915090505481565b6005816101b591906106c1565b5f8190555050565b6002805f0154908060010180546101d390610721565b80601f01602080910402602001604051908101604052809291908181526020018280546101ff90610721565b801561024a5780601f106102215761010080835404028352916020019161024a565b820191905f5260205f20905b81548152906001019060200180831161022d57829003601f168201915b5050505050905082565b60048181548110610263575f80fd5b905f5260205f2090600202015f91509050805f01549080600101805461028890610721565b80601f01602080910402602001604051908101604052809291908181526020018280546102b490610721565b80156102ff5780601f106102d6576101008083540402835291602001916102ff565b820191905f5260205f20905b8154815290600101906020018083116102e257829003601f168201915b5050505050905082565b6004604051806040016040528083815260200184815250908060018154018082558091505060019003905f5260205f2090600202015f909190919091505f820151815f0155602082015181600101908161036391906108f1565b5050508060058360405161037791906109fa565b9081526020016040518091039020819055505050565b5f5481565b5f819050919050565b6103a481610392565b82525050565b5f6020820190506103bd5f83018461039b565b92915050565b5f604051905090565b5f5ffd5b5f5ffd5b5f5ffd5b5f5ffd5b5f601f19601f8301169050919050565b7f4e487b71000000000000000000000000000000000000000000000000000000005f52604160045260245ffd5b610422826103dc565b810181811067ffffffffffffffff82111715610441576104406103ec565b5b80604052505050565b5f6104536103c3565b905061045f8282610419565b919050565b5f67ffffffffffffffff82111561047e5761047d6103ec565b5b610487826103dc565b9050602081019050919050565b828183375f83830152505050565b5f6104b46104af84610464565b61044a565b9050828152602081018484840111156104d0576104cf6103d8565b5b6104db848285610494565b509392505050565b5f82601f8301126104f7576104f66103d4565b5b81356105078482602086016104a2565b91505092915050565b5f60208284031215610525576105246103cc565b5b5f82013567ffffffffffffffff811115610542576105416103d0565b5b61054e848285016104e3565b91505092915050565b61056081610392565b811461056a575f5ffd5b50565b5f8135905061057b81610557565b92915050565b5f60208284031215610596576105956103cc565b5b5f6105a38482850161056d565b91505092915050565b5f81519050919050565b5f82825260208201905092915050565b8281835e5f83830152505050565b5f6105de826105ac565b6105e881856105b6565b93506105f88185602086016105c6565b610601816103dc565b840191505092915050565b5f60408201905061061f5f83018561039b565b818103602083015261063181846105d4565b90509392505050565b5f5f604083850312156106505761064f6103cc565b5b5f83013567ffffffffffffffff81111561066d5761066c6103d0565b5b610679858286016104e3565b925050602061068a8582860161056d565b9150509250929050565b7f4e487b71000000000000000000000000000000000000000000000000000000005f52601160045260245ffd5b5f6106cb82610392565b91506106d683610392565b92508282019050808211156106ee576106ed610694565b5b92915050565b7f4e487b71000000000000000000000000000000000000000000000000000000005f52602260045260245ffd5b5f600282049050600182168061073857607f821691505b60208210810361074b5761074a6106f4565b5b50919050565b5f819050815f5260205f209050919050565b5f6020601f8301049050919050565b5f82821b905092915050565b5f600883026107ad7fffffffffffffffffffffffffffffffffffffffffffffffffffffffffffffffff82610772565b6107b78683610772565b95508019841693508086168417925050509392505050565b5f819050919050565b5f6107f26107ed6107e884610392565b6107cf565b610392565b9050919050565b5f819050919050565b61080b836107d8565b61081f610817826107f9565b84845461077e565b825550505050565b5f5f905090565b610836610827565b610841818484610802565b505050565b5b81811015610864576108595f8261082e565b600181019050610847565b5050565b601f8211156108a95761087a81610751565b61088384610763565b81016020851015610892578190505b6108a661089e85610763565b830182610846565b50505b505050565b5f82821c905092915050565b5f6108c95f19846008026108ae565b1980831691505092915050565b5f6108e183836108ba565b9150826002028217905092915050565b6108fa826105ac565b67ffffffffffffffff811115610913576109126103ec565b5b61091d8254610721565b610928828285610868565b5f60209050601f831160018114610959575f8415610947578287015190505b61095185826108d6565b8655506109b8565b601f19841661096786610751565b5f5b8281101561098e57848901518255600182019150602085019450602081019050610969565b868310156109ab57848901516109a7601f8916826108ba565b8355505b6001600288020188555050505b505050505050565b5f81905092915050565b5f6109d4826105ac565b6109de81856109c0565b93506109ee8185602086016105c6565b80840191505092915050565b5f610a0582846109ca565b91508190509291505056fea264697066735822122087a02586b7dc720c5be15cf901cc7eab9fbc46d06044ae0b8b3b961801213e8064736f6c634300081e0033",
					"opcodes": "PUSH1 0x80 PUSH1 0x40 MSTORE PUSH1 0x40 MLOAD DUP1 PUSH1 0x40 ADD PUSH1 0x40 MSTORE DUP1 PUSH1 0xA DUP2 MSTORE PUSH1 0x20 ADD PUSH1 0x40 MLOAD DUP1 PUSH1 0x40 ADD PUSH1 0x40 MSTORE DUP1 PUSH1 0x3 DUP2 MSTORE PUSH1 0x20 ADD PUSH32 0x7061740000000000000000000000000000000000000000000000000000000000 DUP2 MSTORE POP DUP2 MSTORE POP PUSH1 0x2 PUSH0 DUP3 ADD MLOAD DUP2 PUSH0 ADD SSTORE PUSH1 0x20 DUP3 ADD MLOAD DUP2 PUSH1 0x1 ADD SWAP1 DUP2 PUSH2 0x6E SWAP2 SWAP1 PUSH2 0x2BF JUMP JUMPDEST POP POP POP CALLVALUE DUP1 ISZERO PUSH2 0x7C JUMPI PUSH0 PUSH0 REVERT JUMPDEST POP PUSH2 0x38E JUMP JUMPDEST PUSH0 DUP2 MLOAD SWAP1 POP SWAP2 SWAP1 POP JUMP JUMPDEST PUSH32 0x4E487B7100000000000000000000000000000000000000000000000000000000 PUSH0 MSTORE PUSH1 0x41 PUSH1 0x4 MSTORE PUSH1 0x24 PUSH0 REVERT JUMPDEST PUSH32 0x4E487B7100000000000000000000000000000000000000000000000000000000 PUSH0 MSTORE PUSH1 0x22 PUSH1 0x4 MSTORE PUSH1 0x24 PUSH0 REVERT JUMPDEST PUSH0 PUSH1 0x2 DUP3 DIV SWAP1 POP PUSH1 0x1 DUP3 AND DUP1 PUSH2 0xFD JUMPI PUSH1 0x7F DUP3 AND SWAP2 POP JUMPDEST PUSH1 0x20 DUP3 LT DUP2 SUB PUSH2 0x110 JUMPI PUSH2 0x10F PUSH2 0xB9 JUMP JUMPDEST JUMPDEST POP SWAP2 SWAP1 POP JUMP JUMPDEST PUSH0 DUP2 SWAP1 POP DUP2 PUSH0 MSTORE PUSH1 0x20 PUSH0 KECCAK256 SWAP1 POP SWAP2 SWAP1 POP JUMP JUMPDEST PUSH0 PUSH1 0x20 PUSH1 0x1F DUP4 ADD DIV SWAP1 POP SWAP2 SWAP1 POP JUMP JUMPDEST PUSH0 DUP3 DUP3 SHL SWAP1 POP SWAP3 SWAP2 POP POP JUMP JUMPDEST PUSH0 PUSH1 0x8 DUP4 MUL PUSH2 0x172 PUSH32 0xFFFFFFFFFFFFFFFFFFFFFFFFFFFFFFFFFFFFFFFFFFFFFFFFFFFFFFFFFFFFFFFF DUP3 PUSH2 0x137 JUMP JUMPDEST PUSH2 0x17C DUP7 DUP4 PUSH2 0x137 JUMP JUMPDEST SWAP6 POP DUP1 NOT DUP5 AND SWAP4 POP DUP1 DUP7 AND DUP5 OR SWAP3 POP POP POP SWAP4 SWAP3 POP POP POP JUMP JUMPDEST PUSH0 DUP2 SWAP1 POP SWAP2 SWAP1 POP JUMP JUMPDEST PUSH0 DUP2 SWAP1 POP SWAP2 SWAP1 POP JUMP JUMPDEST PUSH0 PUSH2 0x1C0 PUSH2 0x1BB PUSH2 0x1B6 DUP5 PUSH2 0x194 JUMP JUMPDEST PUSH2 0x19D JUMP JUMPDEST PUSH2 0x194 JUMP JUMPDEST SWAP1 POP SWAP2 SWAP1 POP JUMP JUMPDEST PUSH0 DUP2 SWAP1 POP SWAP2 SWAP1 POP JUMP JUMPDEST PUSH2 0x1D9 DUP4 PUSH2 0x1A6 JUMP JUMPDEST PUSH2 0x1ED PUSH2 0x1E5 DUP3 PUSH2 0x1C7 JUMP JUMPDEST DUP5 DUP5 SLOAD PUSH2 0x143 JUMP JUMPDEST DUP3 SSTORE POP POP POP POP JUMP JUMPDEST PUSH0 PUSH0 SWAP1 POP SWAP1 JUMP JUMPDEST PUSH2 0x204 PUSH2 0x1F5 JUMP JUMPDEST PUSH2 0x20F DUP2 DUP5 DUP5 PUSH2 0x1D0 JUMP JUMPDEST POP POP POP JUMP JUMPDEST JUMPDEST DUP2 DUP2 LT ISZERO PUSH2 0x232 JUMPI PUSH2 0x227 PUSH0 DUP3 PUSH2 0x1FC JUMP JUMPDEST PUSH1 0x1 DUP2 ADD SWAP1 POP PUSH2 0x215 JUMP JUMPDEST POP POP JUMP JUMPDEST PUSH1 0x1F DUP3 GT ISZERO PUSH2 0x277 JUMPI PUSH2 0x248 DUP2 PUSH2 0x116 JUMP JUMPDEST PUSH2 0x251 DUP5 PUSH2 0x128 JUMP JUMPDEST DUP2 ADD PUSH1 0x20 DUP6 LT ISZERO PUSH2 0x260 JUMPI DUP2 SWAP1 POP JUMPDEST PUSH2 0x274 PUSH2 0x26C DUP6 PUSH2 0x128 JUMP JUMPDEST DUP4 ADD DUP3 PUSH2 0x214 JUMP JUMPDEST POP POP JUMPDEST POP POP POP JUMP JUMPDEST PUSH0 DUP3 DUP3 SHR SWAP1 POP SWAP3 SWAP2 POP POP JUMP JUMPDEST PUSH0 PUSH2 0x297 PUSH0 NOT DUP5 PUSH1 0x8 MUL PUSH2 0x27C JUMP JUMPDEST NOT DUP1 DUP4 AND SWAP2 POP POP SWAP3 SWAP2 POP POP JUMP JUMPDEST PUSH0 PUSH2 0x2AF DUP4 DUP4 PUSH2 0x288 JUMP JUMPDEST SWAP2 POP DUP3 PUSH1 0x2 MUL DUP3 OR SWAP1 POP SWAP3 SWAP2 POP POP JUMP JUMPDEST PUSH2 0x2C8 DUP3 PUSH2 0x82 JUMP JUMPDEST PUSH8 0xFFFFFFFFFFFFFFFF DUP2 GT ISZERO PUSH2 0x2E1 JUMPI PUSH2 0x2E0 PUSH2 0x8C JUMP JUMPDEST JUMPDEST PUSH2 0x2EB DUP3 SLOAD PUSH2 0xE6 JUMP JUMPDEST PUSH2 0x2F6 DUP3 DUP3 DUP6 PUSH2 0x236 JUMP JUMPDEST PUSH0 PUSH1 0x20 SWAP1 POP PUSH1 0x1F DUP4 GT PUSH1 0x1 DUP2 EQ PUSH2 0x327 JUMPI PUSH0 DUP5 ISZERO PUSH2 0x315 JUMPI DUP3 DUP8 ADD MLOAD SWAP1 POP JUMPDEST PUSH2 0x31F DUP6 DUP3 PUSH2 0x2A4 JUMP JUMPDEST DUP7 SSTORE POP PUSH2 0x386 JUMP JUMPDEST PUSH1 0x1F NOT DUP5 AND PUSH2 0x335 DUP7 PUSH2 0x116 JUMP JUMPDEST PUSH0 JUMPDEST DUP3 DUP2 LT ISZERO PUSH2 0x35C JUMPI DUP5 DUP10 ADD MLOAD DUP3 SSTORE PUSH1 0x1 DUP3 ADD SWAP2 POP PUSH1 0x20 DUP6 ADD SWAP5 POP PUSH1 0x20 DUP2 ADD SWAP1 POP PUSH2 0x337 JUMP JUMPDEST DUP7 DUP4 LT ISZERO PUSH2 0x379 JUMPI DUP5 DUP10 ADD MLOAD PUSH2 0x375 PUSH1 0x1F DUP10 AND DUP3 PUSH2 0x288 JUMP JUMPDEST DUP4 SSTORE POP JUMPDEST PUSH1 0x1 PUSH1 0x2 DUP9 MUL ADD DUP9 SSTORE POP POP POP JUMPDEST POP POP POP POP POP POP JUMP JUMPDEST PUSH2 0xA46 DUP1 PUSH2 0x39B PUSH0 CODECOPY PUSH0 RETURN INVALID PUSH1 0x80 PUSH1 0x40 MSTORE CALLVALUE DUP1 ISZERO PUSH2 0xF JUMPI PUSH0 PUSH0 REVERT JUMPDEST POP PUSH1 0x4 CALLDATASIZE LT PUSH2 0x7B JUMPI PUSH0 CALLDATALOAD PUSH1 0xE0 SHR DUP1 PUSH4 0xB4A24F50 GT PUSH2 0x59 JUMPI DUP1 PUSH4 0xB4A24F50 EQ PUSH2 0xE9 JUMPI DUP1 PUSH4 0xBF119BDB EQ PUSH2 0x108 JUMPI DUP1 PUSH4 0xE1B3202A EQ PUSH2 0x139 JUMPI DUP1 PUSH4 0xEE461D15 EQ PUSH2 0x155 JUMPI PUSH2 0x7B JUMP JUMPDEST DUP1 PUSH4 0x2E64CEC1 EQ PUSH2 0x7F JUMPI DUP1 PUSH4 0x43EC8F47 EQ PUSH2 0x9D JUMPI DUP1 PUSH4 0x6057361D EQ PUSH2 0xCD JUMPI JUMPDEST PUSH0 PUSH0 REVERT JUMPDEST PUSH2 0x87 PUSH2 0x173 JUMP JUMPDEST PUSH1 0x40 MLOAD PUSH2 0x94 SWAP2 SWAP1 PUSH2 0x3AA JUMP JUMPDEST PUSH1 0x40 MLOAD DUP1 SWAP2 SUB SWAP1 RETURN JUMPDEST PUSH2 0xB7 PUSH1 0x4 DUP1 CALLDATASIZE SUB DUP2 ADD SWAP1 PUSH2 0xB2 SWAP2 SWAP1 PUSH2 0x510 JUMP JUMPDEST PUSH2 0x17B JUMP JUMPDEST PUSH1 0x40 MLOAD PUSH2 0xC4 SWAP2 SWAP1 PUSH2 0x3AA JUMP JUMPDEST PUSH1 0x40 MLOAD DUP1 SWAP2 SUB SWAP1 RETURN JUMPDEST PUSH2 0xE7 PUSH1 0x4 DUP1 CALLDATASIZE SUB DUP2 ADD SWAP1 PUSH2 0xE2 SWAP2 SWAP1 PUSH2 0x581 JUMP JUMPDEST PUSH2 0x1A8 JUMP JUMPDEST STOP JUMPDEST PUSH2 0xF1 PUSH2 0x1BD JUMP JUMPDEST PUSH1 0x40 MLOAD PUSH2 0xFF SWAP3 SWAP2 SWAP1 PUSH2 0x60C JUMP JUMPDEST PUSH1 0x40 MLOAD DUP1 SWAP2 SUB SWAP1 RETURN JUMPDEST PUSH2 0x122 PUSH1 0x4 DUP1 CALLDATASIZE SUB DUP2 ADD SWAP1 PUSH2 0x11D SWAP2 SWAP1 PUSH2 0x581 JUMP JUMPDEST PUSH2 0x254 JUMP JUMPDEST PUSH1 0x40 MLOAD PUSH2 0x130 SWAP3 SWAP2 SWAP1 PUSH2 0x60C JUMP JUMPDEST PUSH1 0x40 MLOAD DUP1 SWAP2 SUB SWAP1 RETURN JUMPDEST PUSH2 0x153 PUSH1 0x4 DUP1 CALLDATASIZE SUB DUP2 ADD SWAP1 PUSH2 0x14E SWAP2 SWAP1 PUSH2 0x63A JUMP JUMPDEST PUSH2 0x309 JUMP JUMPDEST STOP JUMPDEST PUSH2 0x15D PUSH2 0x38D JUMP JUMPDEST PUSH1 0x40 MLOAD PUSH2 0x16A SWAP2 SWAP1 PUSH2 0x3AA JUMP JUMPDEST PUSH1 0x40 MLOAD DUP1 SWAP2 SUB SWAP1 RETURN JUMPDEST PUSH0 PUSH0 SLOAD SWAP1 POP SWAP1 JUMP JUMPDEST PUSH1 0x5 DUP2 DUP1 MLOAD PUSH1 0x20 DUP2 ADD DUP3 ADD DUP1 MLOAD DUP5 DUP3 MSTORE PUSH1 0x20 DUP4 ADD PUSH1 0x20 DUP6 ADD KECCAK256 DUP2 DUP4 MSTORE DUP1 SWAP6 POP POP POP POP POP POP PUSH0 SWAP2 POP SWAP1 POP SLOAD DUP2 JUMP JUMPDEST PUSH1 0x5 DUP2 PUSH2 0x1B5 SWAP2 SWAP1 PUSH2 0x6C1 JUMP JUMPDEST PUSH0 DUP2 SWAP1 SSTORE POP POP JUMP JUMPDEST PUSH1 0x2 DUP1 PUSH0 ADD SLOAD SWAP1 DUP1 PUSH1 0x1 ADD DUP1 SLOAD PUSH2 0x1D3 SWAP1 PUSH2 0x721 JUMP JUMPDEST DUP1 PUSH1 0x1F ADD PUSH1 0x20 DUP1 SWAP2 DIV MUL PUSH1 0x20 ADD PUSH1 0x40 MLOAD SWAP1 DUP2 ADD PUSH1 0x40 MSTORE DUP1 SWAP3 SWAP2 SWAP1 DUP2 DUP2 MSTORE PUSH1 0x20 ADD DUP3 DUP1 SLOAD PUSH2 0x1FF SWAP1 PUSH2 0x721 JUMP JUMPDEST DUP1 ISZERO PUSH2 0x24A JUMPI DUP1 PUSH1 0x1F LT PUSH2 0x221 JUMPI PUSH2 0x100 DUP1 DUP4 SLOAD DIV MUL DUP4 MSTORE SWAP2 PUSH1 0x20 ADD SWAP2 PUSH2 0x24A JUMP JUMPDEST DUP3 ADD SWAP2 SWAP1 PUSH0 MSTORE PUSH1 0x20 PUSH0 KECCAK256 SWAP1 JUMPDEST DUP2 SLOAD DUP2 MSTORE SWAP1 PUSH1 0x1 ADD SWAP1 PUSH1 0x20 ADD DUP1 DUP4 GT PUSH2 0x22D JUMPI DUP3 SWAP1 SUB PUSH1 0x1F AND DUP3 ADD SWAP2 JUMPDEST POP POP POP POP POP SWAP1 POP DUP3 JUMP JUMPDEST PUSH1 0x4 DUP2 DUP2 SLOAD DUP2 LT PUSH2 0x263 JUMPI PUSH0 DUP1 REVERT JUMPDEST SWAP1 PUSH0 MSTORE PUSH1 0x20 PUSH0 KECCAK256 SWAP1 PUSH1 0x2 MUL ADD PUSH0 SWAP2 POP SWAP1 POP DUP1 PUSH0 ADD SLOAD SWAP1 DUP1 PUSH1 0x1 ADD DUP1 SLOAD PUSH2 0x288 SWAP1 PUSH2 0x721 JUMP JUMPDEST DUP1 PUSH1 0x1F ADD PUSH1 0x20 DUP1 SWAP2 DIV MUL PUSH1 0x20 ADD PUSH1 0x40 MLOAD SWAP1 DUP2 ADD PUSH1 0x40 MSTORE DUP1 SWAP3 SWAP2 SWAP1 DUP2 DUP2 MSTORE PUSH1 0x20 ADD DUP3 DUP1 SLOAD PUSH2 0x2B4 SWAP1 PUSH2 0x721 JUMP JUMPDEST DUP1 ISZERO PUSH2 0x2FF JUMPI DUP1 PUSH1 0x1F LT PUSH2 0x2D6 JUMPI PUSH2 0x100 DUP1 DUP4 SLOAD DIV MUL DUP4 MSTORE SWAP2 PUSH1 0x20 ADD SWAP2 PUSH2 0x2FF JUMP JUMPDEST DUP3 ADD SWAP2 SWAP1 PUSH0 MSTORE PUSH1 0x20 PUSH0 KECCAK256 SWAP1 JUMPDEST DUP2 SLOAD DUP2 MSTORE SWAP1 PUSH1 0x1 ADD SWAP1 PUSH1 0x20 ADD DUP1 DUP4 GT PUSH2 0x2E2 JUMPI DUP3 SWAP1 SUB PUSH1 0x1F AND DUP3 ADD SWAP2 JUMPDEST POP POP POP POP POP SWAP1 POP DUP3 JUMP JUMPDEST PUSH1 0x4 PUSH1 0x40 MLOAD DUP1 PUSH1 0x40 ADD PUSH1 0x40 MSTORE DUP1 DUP4 DUP2 MSTORE PUSH1 0x20 ADD DUP5 DUP2 MSTORE POP SWAP1 DUP1 PUSH1 0x1 DUP2 SLOAD ADD DUP1 DUP3 SSTORE DUP1 SWAP2 POP POP PUSH1 0x1 SWAP1 SUB SWAP1 PUSH0 MSTORE PUSH1 0x20 PUSH0 KECCAK256 SWAP1 PUSH1 0x2 MUL ADD PUSH0 SWAP1 SWAP2 SWAP1 SWAP2 SWAP1 SWAP2 POP PUSH0 DUP3 ADD MLOAD DUP2 PUSH0 ADD SSTORE PUSH1 0x20 DUP3 ADD MLOAD DUP2 PUSH1 0x1 ADD SWAP1 DUP2 PUSH2 0x363 SWAP2 SWAP1 PUSH2 0x8F1 JUMP JUMPDEST POP POP POP DUP1 PUSH1 0x5 DUP4 PUSH1 0x40 MLOAD PUSH2 0x377 SWAP2 SWAP1 PUSH2 0x9FA JUMP JUMPDEST SWAP1 DUP2 MSTORE PUSH1 0x20 ADD PUSH1 0x40 MLOAD DUP1 SWAP2 SUB SWAP1 KECCAK256 DUP2 SWAP1 SSTORE POP POP POP JUMP JUMPDEST PUSH0 SLOAD DUP2 JUMP JUMPDEST PUSH0 DUP2 SWAP1 POP SWAP2 SWAP1 POP JUMP JUMPDEST PUSH2 0x3A4 DUP2 PUSH2 0x392 JUMP JUMPDEST DUP3 MSTORE POP POP JUMP JUMPDEST PUSH0 PUSH1 0x20 DUP3 ADD SWAP1 POP PUSH2 0x3BD PUSH0 DUP4 ADD DUP5 PUSH2 0x39B JUMP JUMPDEST SWAP3 SWAP2 POP POP JUMP JUMPDEST PUSH0 PUSH1 0x40 MLOAD SWAP1 POP SWAP1 JUMP JUMPDEST PUSH0 PUSH0 REVERT JUMPDEST PUSH0 PUSH0 REVERT JUMPDEST PUSH0 PUSH0 REVERT JUMPDEST PUSH0 PUSH0 REVERT JUMPDEST PUSH0 PUSH1 0x1F NOT PUSH1 0x1F DUP4 ADD AND SWAP1 POP SWAP2 SWAP1 POP JUMP JUMPDEST PUSH32 0x4E487B7100000000000000000000000000000000000000000000000000000000 PUSH0 MSTORE PUSH1 0x41 PUSH1 0x4 MSTORE PUSH1 0x24 PUSH0 REVERT JUMPDEST PUSH2 0x422 DUP3 PUSH2 0x3DC JUMP JUMPDEST DUP2 ADD DUP2 DUP2 LT PUSH8 0xFFFFFFFFFFFFFFFF DUP3 GT OR ISZERO PUSH2 0x441 JUMPI PUSH2 0x440 PUSH2 0x3EC JUMP JUMPDEST JUMPDEST DUP1 PUSH1 0x40 MSTORE POP POP POP JUMP JUMPDEST PUSH0 PUSH2 0x453 PUSH2 0x3C3 JUMP JUMPDEST SWAP1 POP PUSH2 0x45F DUP3 DUP3 PUSH2 0x419 JUMP JUMPDEST SWAP2 SWAP1 POP JUMP JUMPDEST PUSH0 PUSH8 0xFFFFFFFFFFFFFFFF DUP3 GT ISZERO PUSH2 0x47E JUMPI PUSH2 0x47D PUSH2 0x3EC JUMP JUMPDEST JUMPDEST PUSH2 0x487 DUP3 PUSH2 0x3DC JUMP JUMPDEST SWAP1 POP PUSH1 0x20 DUP2 ADD SWAP1 POP SWAP2 SWAP1 POP JUMP JUMPDEST DUP3 DUP2 DUP4 CALLDATACOPY PUSH0 DUP4 DUP4 ADD MSTORE POP POP POP JUMP JUMPDEST PUSH0 PUSH2 0x4B4 PUSH2 0x4AF DUP5 PUSH2 0x464 JUMP JUMPDEST PUSH2 0x44A JUMP JUMPDEST SWAP1 POP DUP3 DUP2 MSTORE PUSH1 0x20 DUP2 ADD DUP5 DUP5 DUP5 ADD GT ISZERO PUSH2 0x4D0 JUMPI PUSH2 0x4CF PUSH2 0x3D8 JUMP JUMPDEST JUMPDEST PUSH2 0x4DB DUP5 DUP3 DUP6 PUSH2 0x494 JUMP JUMPDEST POP SWAP4 SWAP3 POP POP POP JUMP JUMPDEST PUSH0 DUP3 PUSH1 0x1F DUP4 ADD SLT PUSH2 0x4F7 JUMPI PUSH2 0x4F6 PUSH2 0x3D4 JUMP JUMPDEST JUMPDEST DUP2 CALLDATALOAD PUSH2 0x507 DUP5 DUP3 PUSH1 0x20 DUP7 ADD PUSH2 0x4A2 JUMP JUMPDEST SWAP2 POP POP SWAP3 SWAP2 POP POP JUMP JUMPDEST PUSH0 PUSH1 0x20 DUP3 DUP5 SUB SLT ISZERO PUSH2 0x525 JUMPI PUSH2 0x524 PUSH2 0x3CC JUMP JUMPDEST JUMPDEST PUSH0 DUP3 ADD CALLDATALOAD PUSH8 0xFFFFFFFFFFFFFFFF DUP2 GT ISZERO PUSH2 0x542 JUMPI PUSH2 0x541 PUSH2 0x3D0 JUMP JUMPDEST JUMPDEST PUSH2 0x54E DUP5 DUP3 DUP6 ADD PUSH2 0x4E3 JUMP JUMPDEST SWAP2 POP POP SWAP3 SWAP2 POP POP JUMP JUMPDEST PUSH2 0x560 DUP2 PUSH2 0x392 JUMP JUMPDEST DUP2 EQ PUSH2 0x56A JUMPI PUSH0 PUSH0 REVERT JUMPDEST POP JUMP JUMPDEST PUSH0 DUP2 CALLDATALOAD SWAP1 POP PUSH2 0x57B DUP2 PUSH2 0x557 JUMP JUMPDEST SWAP3 SWAP2 POP POP JUMP JUMPDEST PUSH0 PUSH1 0x20 DUP3 DUP5 SUB SLT ISZERO PUSH2 0x596 JUMPI PUSH2 0x595 PUSH2 0x3CC JUMP JUMPDEST JUMPDEST PUSH0 PUSH2 0x5A3 DUP5 DUP3 DUP6 ADD PUSH2 0x56D JUMP JUMPDEST SWAP2 POP POP SWAP3 SWAP2 POP POP JUMP JUMPDEST PUSH0 DUP2 MLOAD SWAP1 POP SWAP2 SWAP1 POP JUMP JUMPDEST PUSH0 DUP3 DUP3 MSTORE PUSH1 0x20 DUP3 ADD SWAP1 POP SWAP3 SWAP2 POP POP JUMP JUMPDEST DUP3 DUP2 DUP4 MCOPY PUSH0 DUP4 DUP4 ADD MSTORE POP POP POP JUMP JUMPDEST PUSH0 PUSH2 0x5DE DUP3 PUSH2 0x5AC JUMP JUMPDEST PUSH2 0x5E8 DUP2 DUP6 PUSH2 0x5B6 JUMP JUMPDEST SWAP4 POP PUSH2 0x5F8 DUP2 DUP6 PUSH1 0x20 DUP7 ADD PUSH2 0x5C6 JUMP JUMPDEST PUSH2 0x601 DUP2 PUSH2 0x3DC JUMP JUMPDEST DUP5 ADD SWAP2 POP POP SWAP3 SWAP2 POP POP JUMP JUMPDEST PUSH0 PUSH1 0x40 DUP3 ADD SWAP1 POP PUSH2 0x61F PUSH0 DUP4 ADD DUP6 PUSH2 0x39B JUMP JUMPDEST DUP2 DUP2 SUB PUSH1 0x20 DUP4 ADD MSTORE PUSH2 0x631 DUP2 DUP5 PUSH2 0x5D4 JUMP JUMPDEST SWAP1 POP SWAP4 SWAP3 POP POP POP JUMP JUMPDEST PUSH0 PUSH0 PUSH1 0x40 DUP4 DUP6 SUB SLT ISZERO PUSH2 0x650 JUMPI PUSH2 0x64F PUSH2 0x3CC JUMP JUMPDEST JUMPDEST PUSH0 DUP4 ADD CALLDATALOAD PUSH8 0xFFFFFFFFFFFFFFFF DUP2 GT ISZERO PUSH2 0x66D JUMPI PUSH2 0x66C PUSH2 0x3D0 JUMP JUMPDEST JUMPDEST PUSH2 0x679 DUP6 DUP3 DUP7 ADD PUSH2 0x4E3 JUMP JUMPDEST SWAP3 POP POP PUSH1 0x20 PUSH2 0x68A DUP6 DUP3 DUP7 ADD PUSH2 0x56D JUMP JUMPDEST SWAP2 POP POP SWAP3 POP SWAP3 SWAP1 POP JUMP JUMPDEST PUSH32 0x4E487B7100000000000000000000000000000000000000000000000000000000 PUSH0 MSTORE PUSH1 0x11 PUSH1 0x4 MSTORE PUSH1 0x24 PUSH0 REVERT JUMPDEST PUSH0 PUSH2 0x6CB DUP3 PUSH2 0x392 JUMP JUMPDEST SWAP2 POP PUSH2 0x6D6 DUP4 PUSH2 0x392 JUMP JUMPDEST SWAP3 POP DUP3 DUP3 ADD SWAP1 POP DUP1 DUP3 GT ISZERO PUSH2 0x6EE JUMPI PUSH2 0x6ED PUSH2 0x694 JUMP JUMPDEST JUMPDEST SWAP3 SWAP2 POP POP JUMP JUMPDEST PUSH32 0x4E487B7100000000000000000000000000000000000000000000000000000000 PUSH0 MSTORE PUSH1 0x22 PUSH1 0x4 MSTORE PUSH1 0x24 PUSH0 REVERT JUMPDEST PUSH0 PUSH1 0x2 DUP3 DIV SWAP1 POP PUSH1 0x1 DUP3 AND DUP1 PUSH2 0x738 JUMPI PUSH1 0x7F DUP3 AND SWAP2 POP JUMPDEST PUSH1 0x20 DUP3 LT DUP2 SUB PUSH2 0x74B JUMPI PUSH2 0x74A PUSH2 0x6F4 JUMP JUMPDEST JUMPDEST POP SWAP2 SWAP1 POP JUMP JUMPDEST PUSH0 DUP2 SWAP1 POP DUP2 PUSH0 MSTORE PUSH1 0x20 PUSH0 KECCAK256 SWAP1 POP SWAP2 SWAP1 POP JUMP JUMPDEST PUSH0 PUSH1 0x20 PUSH1 0x1F DUP4 ADD DIV SWAP1 POP SWAP2 SWAP1 POP JUMP JUMPDEST PUSH0 DUP3 DUP3 SHL SWAP1 POP SWAP3 SWAP2 POP POP JUMP JUMPDEST PUSH0 PUSH1 0x8 DUP4 MUL PUSH2 0x7AD PUSH32 0xFFFFFFFFFFFFFFFFFFFFFFFFFFFFFFFFFFFFFFFFFFFFFFFFFFFFFFFFFFFFFFFF DUP3 PUSH2 0x772 JUMP JUMPDEST PUSH2 0x7B7 DUP7 DUP4 PUSH2 0x772 JUMP JUMPDEST SWAP6 POP DUP1 NOT DUP5 AND SWAP4 POP DUP1 DUP7 AND DUP5 OR SWAP3 POP POP POP SWAP4 SWAP3 POP POP POP JUMP JUMPDEST PUSH0 DUP2 SWAP1 POP SWAP2 SWAP1 POP JUMP JUMPDEST PUSH0 PUSH2 0x7F2 PUSH2 0x7ED PUSH2 0x7E8 DUP5 PUSH2 0x392 JUMP JUMPDEST PUSH2 0x7CF JUMP JUMPDEST PUSH2 0x392 JUMP JUMPDEST SWAP1 POP SWAP2 SWAP1 POP JUMP JUMPDEST PUSH0 DUP2 SWAP1 POP SWAP2 SWAP1 POP JUMP JUMPDEST PUSH2 0x80B DUP4 PUSH2 0x7D8 JUMP JUMPDEST PUSH2 0x81F PUSH2 0x817 DUP3 PUSH2 0x7F9 JUMP JUMPDEST DUP5 DUP5 SLOAD PUSH2 0x77E JUMP JUMPDEST DUP3 SSTORE POP POP POP POP JUMP JUMPDEST PUSH0 PUSH0 SWAP1 POP SWAP1 JUMP JUMPDEST PUSH2 0x836 PUSH2 0x827 JUMP JUMPDEST PUSH2 0x841 DUP2 DUP5 DUP5 PUSH2 0x802 JUMP JUMPDEST POP POP POP JUMP JUMPDEST JUMPDEST DUP2 DUP2 LT ISZERO PUSH2 0x864 JUMPI PUSH2 0x859 PUSH0 DUP3 PUSH2 0x82E JUMP JUMPDEST PUSH1 0x1 DUP2 ADD SWAP1 POP PUSH2 0x847 JUMP JUMPDEST POP POP JUMP JUMPDEST PUSH1 0x1F DUP3 GT ISZERO PUSH2 0x8A9 JUMPI PUSH2 0x87A DUP2 PUSH2 0x751 JUMP JUMPDEST PUSH2 0x883 DUP5 PUSH2 0x763 JUMP JUMPDEST DUP2 ADD PUSH1 0x20 DUP6 LT ISZERO PUSH2 0x892 JUMPI DUP2 SWAP1 POP JUMPDEST PUSH2 0x8A6 PUSH2 0x89E DUP6 PUSH2 0x763 JUMP JUMPDEST DUP4 ADD DUP3 PUSH2 0x846 JUMP JUMPDEST POP POP JUMPDEST POP POP POP JUMP JUMPDEST PUSH0 DUP3 DUP3 SHR SWAP1 POP SWAP3 SWAP2 POP POP JUMP JUMPDEST PUSH0 PUSH2 0x8C9 PUSH0 NOT DUP5 PUSH1 0x8 MUL PUSH2 0x8AE JUMP JUMPDEST NOT DUP1 DUP4 AND SWAP2 POP POP SWAP3 SWAP2 POP POP JUMP JUMPDEST PUSH0 PUSH2 0x8E1 DUP4 DUP4 PUSH2 0x8BA JUMP JUMPDEST SWAP2 POP DUP3 PUSH1 0x2 MUL DUP3 OR SWAP1 POP SWAP3 SWAP2 POP POP JUMP JUMPDEST PUSH2 0x8FA DUP3 PUSH2 0x5AC JUMP JUMPDEST PUSH8 0xFFFFFFFFFFFFFFFF DUP2 GT ISZERO PUSH2 0x913 JUMPI PUSH2 0x912 PUSH2 0x3EC JUMP JUMPDEST JUMPDEST PUSH2 0x91D DUP3 SLOAD PUSH2 0x721 JUMP JUMPDEST PUSH2 0x928 DUP3 DUP3 DUP6 PUSH2 0x868 JUMP JUMPDEST PUSH0 PUSH1 0x20 SWAP1 POP PUSH1 0x1F DUP4 GT PUSH1 0x1 DUP2 EQ PUSH2 0x959 JUMPI PUSH0 DUP5 ISZERO PUSH2 0x947 JUMPI DUP3 DUP8 ADD MLOAD SWAP1 POP JUMPDEST PUSH2 0x951 DUP6 DUP3 PUSH2 0x8D6 JUMP JUMPDEST DUP7 SSTORE POP PUSH2 0x9B8 JUMP JUMPDEST PUSH1 0x1F NOT DUP5 AND PUSH2 0x967 DUP7 PUSH2 0x751 JUMP JUMPDEST PUSH0 JUMPDEST DUP3 DUP2 LT ISZERO PUSH2 0x98E JUMPI DUP5 DUP10 ADD MLOAD DUP3 SSTORE PUSH1 0x1 DUP3 ADD SWAP2 POP PUSH1 0x20 DUP6 ADD SWAP5 POP PUSH1 0x20 DUP2 ADD SWAP1 POP PUSH2 0x969 JUMP JUMPDEST DUP7 DUP4 LT ISZERO PUSH2 0x9AB JUMPI DUP5 DUP10 ADD MLOAD PUSH2 0x9A7 PUSH1 0x1F DUP10 AND DUP3 PUSH2 0x8BA JUMP JUMPDEST DUP4 SSTORE POP JUMPDEST PUSH1 0x1 PUSH1 0x2 DUP9 MUL ADD DUP9 SSTORE POP POP POP JUMPDEST POP POP POP POP POP POP JUMP JUMPDEST PUSH0 DUP2 SWAP1 POP SWAP3 SWAP2 POP POP JUMP JUMPDEST PUSH0 PUSH2 0x9D4 DUP3 PUSH2 0x5AC JUMP JUMPDEST PUSH2 0x9DE DUP2 DUP6 PUSH2 0x9C0 JUMP JUMPDEST SWAP4 POP PUSH2 0x9EE DUP2 DUP6 PUSH1 0x20 DUP7 ADD PUSH2 0x5C6 JUMP JUMPDEST DUP1 DUP5 ADD SWAP2 POP POP SWAP3 SWAP2 POP POP JUMP JUMPDEST PUSH0 PUSH2 0xA05 DUP3 DUP5 PUSH2 0x9CA JUMP JUMPDEST SWAP2 POP DUP2 SWAP1 POP SWAP3 SWAP2 POP POP JUMP INVALID LOG2 PUSH5 0x6970667358 0x22 SLT KECCAK256 DUP8 LOG0 0x25 DUP7 0xB7 0xDC PUSH19 0xC5BE15CF901CC7EAB9FBC46D06044AE0B8B3B SWAP7 XOR ADD 0x21 RETURNDATACOPY DUP1 PUSH5 0x736F6C6343 STOP ADDMOD 0x1E STOP CALLER "
				},
				"gasEstimates": {
					"creation": {
						"codeDepositCost": "526000",
						"executionCost": "infinite",
						"totalCost": "infinite"
					},
					"external": {
						"addperson(string,uint256)": "infinite",
						"listofpeople(uint256)": "infinite",
						"myfavnumber()": "2490",
						"nameToFavNumber(string)": "infinite",
						"pat()": "infinite",
						"retrieve()": "2432",
						"store(uint256)": "infinite"
					}
				},
				"methodIdentifiers": {
					"addperson(string,uint256)": "e1b3202a",
					"listofpeople(uint256)": "bf119bdb",
					"myfavnumber()": "ee461d15",
					"nameToFavNumber(string)": "43ec8f47",
					"pat()": "b4a24f50",
					"retrieve()": "2e64cec1",
					"store(uint256)": "6057361d"
				}
			},
			"storageLayout": {
				"storage": [
					{
						"astId": 23,
						"contract": "contracts/AddFiveStorage.sol:AddFiveStorage",
						"label": "myfavnumber",
						"offset": 0,
						"slot": "0",
						"type": "t_uint256"
					},
					{
						"astId": 26,
						"contract": "contracts/AddFiveStorage.sol:AddFiveStorage",
						"label": "listoffavnum",
						"offset": 0,
						"slot": "1",
						"type": "t_array(t_uint256)dyn_storage"
					},
					{
						"astId": 38,
						"contract": "contracts/AddFiveStorage.sol:AddFiveStorage",
						"label": "pat",
						"offset": 0,
						"slot": "2",
						"type": "t_struct(person)31_storage"
					},
					{
						"astId": 42,
						"contract": "contracts/AddFiveStorage.sol:AddFiveStorage",
						"label": "listofpeople",
						"offset": 0,
						"slot": "4",
						"type": "t_array(t_struct(person)31_storage)dyn_storage"
					},
					{
						"astId": 46,
						"contract": "contracts/AddFiveStorage.sol:AddFiveStorage",
						"label": "nameToFavNumber",
						"offset": 0,
						"slot": "5",
						"type": "t_mapping(t_string_memory_ptr,t_uint256)"
					}
				],
				"types": {
					"t_array(t_struct(person)31_storage)dyn_storage": {
						"base": "t_struct(person)31_storage",
						"encoding": "dynamic_array",
						"label": "struct SimpleStorage.person[]",
						"numberOfBytes": "32"
					},
					"t_array(t_uint256)dyn_storage": {
						"base": "t_uint256",
						"encoding": "dynamic_array",
						"label": "uint256[]",
						"numberOfBytes": "32"
					},
					"t_mapping(t_string_memory_ptr,t_uint256)": {
						"encoding": "mapping",
						"key": "t_string_memory_ptr",
						"label": "mapping(string => uint256)",
						"numberOfBytes": "32",
						"value": "t_uint256"
					},
					"t_string_memory_ptr": {
						"encoding": "bytes",
						"label": "string",
						"numberOfBytes": "32"
					},
					"t_string_storage": {
						"encoding": "bytes",
						"label": "string",
						"numberOfBytes": "32"
					},
					"t_struct(person)31_storage": {
						"encoding": "inplace",
						"label": "struct SimpleStorage.person",
						"members": [
							{
								"astId": 28,
								"contract": "contracts/AddFiveStorage.sol:AddFiveStorage",
								"label": "favnumber",
								"offset": 0,
								"slot": "0",
								"type": "t_uint256"
							},
							{
								"astId": 30,
								"contract": "contracts/AddFiveStorage.sol:AddFiveStorage",
								"label": "name",
								"offset": 0,
								"slot": "1",
								"type": "t_string_storage"
							}
						],
						"numberOfBytes": "64"
					},
					"t_uint256": {
						"encoding": "inplace",
						"label": "uint256",
						"numberOfBytes": "32"
					}
				}
			},
			"userdoc": {
				"kind": "user",
				"methods": {},
				"version": 1
			}
		}
	}
}