{
	"data": {
		"bytecode": {
			"linkReferences": {},
			"object": "6080604052348015600e575f5ffd5b5061014f8061001c5f395ff3fe608060405260043610610021575f3560e01c806365372147146100455761003d565b3661003d575f5f815480929190610037906100aa565b91905055005b60025f819055005b348015610050575f5ffd5b5061005961006f565b6040516100669190610100565b60405180910390f35b5f5481565b7f4e487b71000000000000000000000000000000000000000000000000000000005f52601160045260245ffd5b5f819050919050565b5f6100b4826100a1565b91507fffffffffffffffffffffffffffffffffffffffffffffffffffffffffffffffff82036100e6576100e5610074565b5b600182019050919050565b6100fa816100a1565b82525050565b5f6020820190506101135f8301846100f1565b9291505056fea2646970667358221220e2ce07a8151416b548a50ffeab0023304d59eca549ffeaa4a09b4749804131f964736f6c634300081e0033",
			"opcodes": "PUSH1 0x80 PUSH1 0x40 MSTORE CALLVALUE DUP1 ISZERO PUSH1 0xE JUMPI PUSH0 PUSH0 REVERT JUMPDEST POP PUSH2 0x14F DUP1 PUSH2 0x1C PUSH0 CODECOPY PUSH0 RETURN INVALID PUSH1 0x80 PUSH1 0x40 MSTORE PUSH1 0x4 CALLDATASIZE LT PUSH2 0x21 JUMPI PUSH0 CALLDATALOAD PUSH1 0xE0 SHR DUP1 PUSH4 0x65372147 EQ PUSH2 0x45 JUMPI PUSH2 0x3D JUMP JUMPDEST CALLDATASIZE PUSH2 0x3D JUMPI PUSH0 PUSH0 DUP2 SLOAD DUP1 SWAP3 SWAP2 SWAP1 PUSH2 0x37 SWAP1 PUSH2 0xAA JUMP JUMPDEST SWAP2 SWAP1 POP SSTORE STOP JUMPDEST PUSH1 0x2 PUSH0 DUP2 SWAP1 SSTORE STOP JUMPDEST CALLVALUE DUP1 ISZERO PUSH2 0x50 JUMPI PUSH0 PUSH0 REVERT JUMPDEST POP PUSH2 0x59 PUSH2 0x6F JUMP JUMPDEST PUSH1 0x40 MLOAD PUSH2 0x66 SWAP2 SWAP1 PUSH2 0x100 JUMP JUMPDEST PUSH1 0x40 MLOAD DUP1 SWAP2 SUB SWAP1 RETURN JUMPDEST PUSH0 SLOAD DUP2 JUMP JUMPDEST PUSH32 0x4E487B7100000000000000000000000000000000000000000000000000000000 PUSH0 MSTORE PUSH1 0x11 PUSH1 0x4 MSTORE PUSH1 0x24 PUSH0 REVERT JUMPDEST PUSH0 DUP2 SWAP1 POP SWAP2 SWAP1 POP JUMP JUMPDEST PUSH0 PUSH2 0xB4 DUP3 PUSH2 0xA1 JUMP JUMPDEST SWAP2 POP PUSH32 0xFFFFFFFFFFFFFFFFFFFFFFFFFFFFFFFFFFFFFFFFFFFFFFFFFFFFFFFFFFFFFFFF DUP3 SUB PUSH2 0xE6 JUMPI PUSH2 0xE5 PUSH2 0x74 JUMP JUMPDEST JUMPDEST PUSH1 0x1 DUP3 ADD SWAP1 POP SWAP2 SWAP1 POP JUMP JUMPDEST PUSH2 0xFA DUP2 PUSH2 0xA1 JUMP JUMPDEST DUP3 MSTORE POP POP JUMP JUMPDEST PUSH0 PUSH1 0x20 DUP3 ADD SWAP1 POP PUSH2 0x113 PUSH0 DUP4 ADD DUP5 PUSH2 0xF1 JUMP JUMPDEST SWAP3 SWAP2 POP POP JUMP INVALID LOG2 PUSH5 0x6970667358 0x22 SLT KECCAK256 0xE2 0xCE SMOD 0xA8 ISZERO EQ AND 0xB5 BASEFEE 0xA5 0xF INVALID 0xAB STOP 0x23 ADDRESS 0x4D MSIZE EOFCREATE 0xA5 BLOBHASH SELFDESTRUCT 0xEA LOG4 LOG0 SWAP12 SELFBALANCE BLOBHASH DUP1 COINBASE BALANCE EXTDELEGATECALL PUSH5 0x736F6C6343 STOP ADDMOD 0x1E STOP CALLER "
		},
		"gasEstimates": {
			"creation": {
				"codeDepositCost": "67000",
				"executionCost": "115",
				"totalCost": "67115"
			},
			"external": {
				"": "22195",
				"result()": "2402"
			}
		},
		"methodIdentifiers": {
			"result()": "65372147"
		}
	},
	"abi": [
		{
			"stateMutability": "payable",
			"type": "fallback"
		},
		{
			"inputs": [],
			"name": "result",
			"outputs": [
				{
					"internalType": "uint256",
					"name": "",
					"type": "uint256"
				}
			],
			"stateMutability": "view",
			"type": "function"
		},
		{
			"stateMutability": "payable",
			"type": "receive"
		}
	]
}